:0400000053EF00F0CA
:0E0008004982FACF04F0FBCF05F00EED04F0B4
:100018004980D8CF12F0E8CF13F0E0CF14F0FACF30
:1000280015F0FBCF16F0E9CF17F0EACF18F0E1CFC3
:1000380019F0E2CF1AF0D9CF1BF0DACF1CF0F3CFCA
:100048001DF0F4CF1EF0F6CF1FF0F7CF20F0F8CF59
:1000580021F0F5CF22F022C0F5FF21C0F8FF20C023
:10006800F7FF1FC0F6FF1EC0F4FF1DC0F3FF1CC042
:10007800DAFF1BC0D9FF1AC0E2FF19C0E1FF18C0A0
:10008800EAFF17C0E9FF16C0FBFF15C0FAFF14C04E
:10009800E0FF13C0E8FF12C0D8FF49901000F0EF4E
:1000A80007F008C1D9FF09C1DAFF06C1E1FF07C19E
:1000B800E2FFDFCFE7FF010120EE01F00851D9266A
:1000C8000951DA22010110EE01F00651E12607512B
:1000D800E222DFCFE7FF010120EE02F00851D92626
:1000E8000951DA22010110EE02F00651E12607510A
:1000F800E222DFCFE7FF010120EE03F00851D92605
:100108000951DA22010110EE03F00651E1260751E8
:10011800E222DFCFE7FF010120EE03F00651D926E6
:100128000751DA22010110EE03F00651E1260751CA
:10013800E222E75001010C6F010110EE01F00A51B3
:10014800E1260B51E222E75001010C25D00FDF6EAA
:10015800010120EE03F00651D9260751DA22390EA3
:10016800DF6429D0010120EE03F00651D92607519A
:10017800DA22010110EE03F00651E1260751E222CE
:10018800E75001010C6F01010C510101006F016B77
:10019800000E0101036F3A0E026F4FEC07F00101E8
:1001A8000051300FDF6E010120EE02F00651D92612
:1001B8000751DA22DF2A010120EE02F00651D92682
:1001C8000751DA22010110EE02F00651E12607512B
:1001D800E222E75001010C6F0AC1E1FF0BC1E2FF07
:1001E800E75001010C25D00FDF6E010120EE02F06F
:1001F8000651D9260751DA22350EDF6429D00101CC
:1002080020EE02F00651D9260751DA22010110EE3C
:1002180002F00651E1260751E222E75001010C6F76
:1002280001010C510101006F016B000E0101036F08
:10023800360E026F4FEC07F001010051300FDF6EF0
:10024800010120EE01F00651D9260751DA22DF2AF2
:1002580006C1D9FF07C1DAFF320EDF6031D00101D4
:1002680020EE01F00651D9260751DA22390EDF6453
:100278001200010120EE01F00651D9260751DA22B9
:10028800010110EE01F00651E1260751E222E75084
:1002980001010C6F01010C510101006F016B000E8F
:1002A8000101036F3A0E026F4FEC07F00101005194
:1002B800300FDF6E06C1D9FF07C1DAFFDF2A12004F
:1002C800010120EE01F00651D9260751DA22330E3A
:1002D800DF6426D0010120EE01F00651D92607512E
:1002E800DA22010110EE01F00651E1260751E2225F
:1002F800E75001010C6F01010C510101006F016B06
:10030800000E0101036F340E026F4FEC07F001017C
:100318000051300FDF6E06C1D9FF07C1DAFFDF2AAF
:1003280006C1D9FF07C1DAFF320EDF64120006C129
:10033800D9FF07C1DAFFDF5001010C6F01010C5131
:100348000101006F016B000E0101036F330E026F94
:100358004FEC07F001010051300F06C1D9FF07C16A
:10036800DAFFDF6E120049EC0AF0A30E0101026FFA
:10037800000E0101036F0B0E0101046F2DEC08F054
:1003880014D1C00E2BEC0AF0290E0101026F000EE9
:100398000101036F030E0101046F2DEC08F02C0E10
:1003A8000101026F000E0101036F030E0101046FCA
:1003B8002DEC08F0000E0101126F080E0101126504
:1003C80001D08ED001011251020D150EF324D96E01
:1003D800010EF420DA6EDECF13F1DDCF14F113C174
:1003E800D9FF14C1DAFF240EDE18D8B476D013C1B1
:1003F800D9FF14C1DAFF2950DE18D8A46ED0010144
:1004080020EE01F01351D9261451DA222A50DE18B1
:10041800D8A463D0010120EE02F01351D92614515B
:10042800DA222C50DE18D8A458D0010120EE03F0AF
:100438001351D9261451DA222D50DE18D8A44DD0E4
:10044800030E0101126116D0BE0E0101066F000EE7
:100458000101076F13C108F114C109F1380E010138
:100468000A6F000E01010B6F55EC00F0010EFCEC59
:1004780008F033D0060E0101126116D0C30E010137
:10048800066F000E0101076F13C108F114C109F1CD
:10049800FA0E01010A6F000E01010B6F55EC00F016
:1004A800020EFCEC08F019D0090E0101126115D0FA
:1004B800C80E0101066F000E0101076F13C108F194
:1004C80014C109F1FD0E01010A6F000E01010B6F45
:1004D80055EC00F0030EFCEC08F00101122B6DD76F
:1004E800000E01010F6F020E01010F6501D05DD0F2
:1004F80001010F51020D770EF324D96E000EF4207E
:10050800DA6EDECF10F1DDCF11F110C1D9FF11C1C4
:10051800DAFF240EDE18D8B445D010C1D9FF11C1B6
:10052800DAFF2950DE18D8A43DD0010120EE01F0F1
:100538001051D9261151DA222A50DE18D8A432D007
:10054800010120EE02F01051D9261151DA222C5067
:10055800DE18D8A427D0010120EE03F01051D926C7
:100568001151DA222D50DE18D8A41CD001010F2910
:10057800E7EC08F0000E01010E6F030E01010E6595
:1005880001D010D001010E51010DF35001011025C9
:10059800D96EF45001011121DA6E240EDF6E0101CB
:1005A8000E2BEBD701010F2B9ED74504D8A41200C0
:1005B8004850D8A41200E5D6000E0101006F030EC2
:1005C8000101006501D0120051EC0AF07DD0819044
:1005D8004004D8B481B803D0010E476E1200020E51
:1005E8004018D8B481BA03D0010E476E1200030E2A
:1005F8004018D8B481BC03D0010E476E1200040E17
:100608004018D8B481BE6ED0010E476E1200819298
:100618004004D8B481B803D0020E476E1200020E0F
:100628004018D8B481BA03D0020E476E1200030EE8
:100638004018D8B481BC03D0020E476E1200040ED5
:100648004018D8B481BE4ED0020EDFD78194400442
:10065800D8B481B803D0030E476E1200020E4018BA
:10066800D8B481BA03D0030E476E1200030E4018A7
:10067800D8B481BC03D0030E476E1200040E401894
:10068800D8B481BE2FD0030EC0D781964004D8B409
:1006980081B803D0040E476E1200020E4018D8B479
:1006A80081BA03D0040E476E1200030E4018D8B466
:1006B80081BC03D0040E476E1200040E4018D8B453
:1006C80081BE10D0040EA1D701010051000AD8B490
:1006D8007ED7010AD8B49BD7030AD8B4B7D7010A82
:1006E800D8B4D3D70101002B6AD7000E016E030ED0
:1006F800016401D012006AEC0AF07DD081904004B8
:10070800D8B481B803D0010E476E1200020E40180B
:10071800D8B481BA03D0010E476E1200030E4018F8
:10072800D8B481BC03D0010E476E1200040E4018E5
:10073800D8B481BE6DD0010E476E1200819240047C
:10074800D8B481B803D0020E476E1200020E4018CA
:10075800D8B481BA03D0020E476E1200030E4018B7
:10076800D8B481BC03D0020E476E1200040E4018A4
:10077800D8B481BE4DD0020EDFD781944004D8B4DE
:1007880081B803D0030E476E1200020E4018D8B489
:1007980081BA03D0030E476E1200030E4018D8B476
:1007A80081BC03D0030E476E1200040E4018D8B463
:1007B80081BE2ED0030EC0D781964004D8B481B82C
:1007C80003D0040E476E1200020E4018D8B481BA46
:1007D80003D0040E476E1200030E4018D8B481BC33
:1007E80003D0040E476E1200040E4018D8B481BE20
:1007F8000FD0040EA1D70150000AD8B47FD7010A40
:10080800D8B49CD7030AD8B4B8D7010AD8B4D4D777
:10081800012A6DD70600E9CF06F0EACF07F0E1CF4D
:1008280008F0E2CF09F0D9CF0AF0DACF0BF0F3CF16
:100838000CF0F4CF0DF0F6CF0EF0F7CF0FF0F8CFA5
:1008480010F0F5CF11F0F2B00CD00ED065EC0AF034
:10085800F00E8118D8A4EAEC09F04604D8B4DCEC10
:1008680009F0F2A04CD0F2D7F2BAF2A448D0242A68
:10087800350E2418D8A43ED0300E246E2D2A3A0EF8
:100888002D18D8A437D0300E2D6E2C2A360E2C18E1
:10089800D8A430D0320E29600BD0300E2C6E2A2A04
:1008A8003A0E2A18D8A426D0300E2A6E292A22D029
:1008B800330E2A6004D0300E2C6E2A2A1BD0300E3C
:1008C800246E300E2C6E300E2D6E300E296E300ECA
:1008D8002A6E232A370E2318D8A40CD0300E246E83
:1008E800300E2C6E300E2D6E300E296E300E2A6EA4
:1008F800300E236EF2943A0ED76E980ED66E11C053
:10090800F5FF10C0F8FF0FC0F7FF0EC0F6FF0DC0CF
:10091800F4FF0CC0F3FF0BC0DAFF0AC0D9FF09C00F
:10092800E2FF08C0E1FF07C0EAFF06C0E9FF05C013
:10093800FBFF04C0FAFF49921100026E5AD04550DD
:10094800D8A404D02F0E3E6E000E3F6E020E45183E
:10095800D8A404D03B0E3E6E000E3F6E010E486ECA
:1009680012004550D8A404D0320E3E6E000E3F6EE1
:10097800020E4518D8A404D03C0E3E6E000E3F6E01
:10098800010E486E12004550D8A404D0350E3E6EB4
:10099800000E3F6E4504D8A404D02F0E3E6E000E04
:1009A8003F6E020E4518D8A404D03D0E3E6E000ED0
:1009B8003F6E010E486E1200000E456E1200010EC9
:1009C800456E1200020E456E12004504D8A404D0EC
:1009D800010E426E010E486E020E4518D8A4120090
:1009E8004350D8A403D0CFEC08F0120014EC0AF05E
:1009F80012000250230AD8B4E8D7090AD8B4120062
:100A08001A0AD8B41200010AD8B499D7030AD8B47C
:100A1800A8D7010AD8B4B7D7070AD8B41200010A70
:100A2800D8B41200030AD8B41200010AD8B41200CC
:100A38000F0AD8B41200010AD8B41200780AD8B440
:100A4800BBD7030AD8B4BBD7010AD8B4BBD7070AA7
:100A5800120060EC0AF0200E01010E6F49EC0AF05A
:100A68003EC0D9FF3FC0DAFF310EDE18D8A40CD043
:100A7800B70E0101026F000E0101036F070E01019D
:100A8800046F2DEC08F05FD0AE0E0101026F000E6E
:100A98000101036F090E0101046F2DEC08F053D01A
:100AA8003BEC09F001010E6F49EC0AF0310E01012F
:100AB8000E19D8A412D03EC0D9FF3FC0DAFF310EBC
:100AC800DF6EB70E0101026F000E0101036F070E02
:100AD8000101046F2DEC08F036D0300E01010E191B
:100AE800D8A412D03EC0D9FF3FC0DAFF300EDF6E67
:100AF800AE0E0101026F000E0101036F090E010124
:100B0800046F2DEC08F01FD03EC0D9FF3FC0DAFFBC
:100B1800310EDE18D8A40CD0B70E0101026F000EFA
:100B28000101036F070E0101046F2DEC08F00BD0D3
:100B3800AE0E0101026F000E0101036F090E0101E3
:100B4800046F2DEC08F0230E01010E19D8A4A8D7C4
:100B58005BEC0AF0000E486E12004704D8B409D0C6
:100B680016D0310E1200320E1200330E1200410E52
:100B780012004050010AD8B4F4D7030AD8B4F3D706
:100B8800010AD8B4F2D7070AD8B4F1D750D0020E68
:100B98004718D8B409D016D0340E1200350E1200FA
:100BA800360E1200420E12004050010AD8B4F4D793
:100BB800030AD8B4F3D7010AD8B4F2D7070AD8B4CD
:100BC800F1D735D0030E4718D8B409D016D0370E50
:100BD8001200380E1200390E1200430E1200405057
:100BE800010AD8B4F4D7030AD8B4F3D7010AD8B4A1
:100BF800F2D7070AD8B4F1D71AD0040E4718D8B4D8
:100C080009D015D02A0E1200300E1200230E120041
:100C1800440E12004050010AD8B4F4D7030AD8B4DD
:100C2800F3D7010AD8B4F2D7070AD8B4F1D7FF0E20
:100C380012004704D8B409D016D0310E1200320E73
:100C48001200330E1200410E12004050010AD8B4AF
:100C5800F4D7030AD8B4F3D7010AD8B4F2D7070AED
:100C6800D8B4F1D750D0020E4718D8B409D016D04E
:100C7800340E1200350E1200360E1200420E12000B
:100C88004050010AD8B4F4D7030AD8B4F3D7010AFC
:100C9800D8B4F2D7070AD8B4F1D735D0030E47181D
:100CA800D8B409D016D0370E1200380E1200390EFB
:100CB8001200430E12004050010AD8B4F4D7030AB8
:100CC800D8B4F3D7010AD8B4F2D7070AD8B4F1D701
:100CD8001AD0040E4718D8B409D015D02A0E12001D
:100CE800300E1200230E1200440E12004050010A6A
:100CF800D8B4F4D7030AD8B4F3D7010AD8B4F2D7D2
:100D0800070AD8B4F1D7FF0E1200600ED36E070E93
:100D1800B46EB59E0F0EC16E000E816E000E8A6E07
:100D28009368000E826E000E8B6E000E946E939088
:100D38009392939493968490849284948D908D92B8
:100D48008D94969096929694D08EF28EF28CF19E17
:100D5800F286F290F1806FEC0AF078EC09F0000E60
:100D6800456E000E416E000E486E000E466EF18410
:100D7800F28A070ED56E3A0ED76E980ED66ED58EBD
:100D88004850D8B40AD01DD050EC09F0F9D7B7ECC8
:100D980001F0F6D711EC09F0F3D74550000AD8B4A2
:100DA800F3D7010AD8B4F3D7030AD8B4F3D7E8D7EE
:100DB800F0EC06F0E5D726EC09F0E2D72DEC05F0CB
:100DC800DFD74550000AD8B4F3D7010AD8B4F3D70F
:100DD800030AD8B4F3D7D4D760EC0AF0200E010187
:100DE8000F6F000E01010E6F49EC0AF0980E010119
:100DF800026F000E0101036F0B0E0101046F2DEC51
:100E080008F03EC0D9FF3FC0DAFFDF5020EC0AF0FF
:100E180020EE01F03E50D9263F50DA22DF5020EC78
:100E28000AF02FD03BEC09F001010F6F230E0101EE
:100E38000F19D8B426D00EC10DF1010E01010D17FE
:100E480001010D513E24D96E0101000E3F20DA6EDA
:100E58000FC1DFFF49EC0AF03EC0D9FF3FC0DAFFFF
:100E6800DF5020EC0AF020EE01F03E50D9263F502A
:100E7800DA22DF5020EC0AF0250E20EC0AF00101FE
:100E88000E2B230E01010F19D8A4CCD75BEC0AF066
:100E9800000E486E1200000E0101056F010101AF3E
:100EA80008D00101006D011FD8B0012B010E01010E
:100EB800056F010103AF05D00101026D031FD8B012
:100EC800032B0101025101010311D8B426D0010EF0
:100ED8000101046F06D00101D890023703370101E0
:100EE800042B010103AFF7D7010102510101005D95
:100EF8000101035101010159D8A008D00101025193
:100F08000101005F010103510101015B0101D8905A
:100F1800033302330101042FE7D701010551010111
:100F2800D8B405D00101006D011FD8B0012B00C154
:100F380000F101C101F1120048656C6C6F20576F18
:100F4800726C640043617374656C6C6F203C00BE06
:100F580000C300C8004175746F6D61746963206DCA
:100F68006F6465004D616E75616C206D6F6465001E
:100F780048756D69646974793A200054696D6572C1
:100F8800206D6F646500496E616374697665004120
:100F9800637469766500242424240024242424000E
:100FA80024242424003030303100303030330030F5
:100FB80030303000303030340024242424002424FD
:100FC800242400303030370024242424002424240E
:100FD800240030310030310000EE3EF00B0EEE6A96
:100FE800E806FDE1800EF66E140EF76E000EF86E40
:100FF80001EE15F010EE12F00900F5CFEEFFE55006
:10100800E150FAE1400EF66E0F0EF76E000EF86E24
:1010180000EE60F010EEA0F00900F5CFEEFFE5500D
:10102800E150FAE10C0EF66E140EF76E000EF86E33
:1010380000EE23F010EE1BF00900F5CFEEFFE550AF
:10104800E150FAE149904992000EF86E000189EFEB
:1010580006F0000E01010C6F10D001010C51010DBA
:10106800F35001010225D96EF45001010321DA6E13
:10107800DF5020EC0AF001010C2BFF0E0101056F77
:10108800FF0E0101066F010104510101076F086B92
:10109800010105510101072701010651010108233A
:1010A80001010C510101096F0A6B0101075101018E
:1010B800095D01010A51800A01010B6F0101085104
:1010C800800A01010B59D8B01200C7D70BD0010E06
:1010D80007D0020E05D0030E03D0040E01D0640E13
:1010E800406E0ED08150700AD8B4F7D7C00AD8B471
:1010F800F2D7600AD8B4EDD7300AD8B4E8D7EFD71A
:1011080079EC03F01DEC06F0446E4450A1EC04F0B9
:101118001200020E0101006FA20E0101016F010110
:10112800026912D0A20E0101016F08D00101026903
:101138000101020701010229D8A4FAD70101010718
:1011480001010129D8A4F2D70101000701010029F2
:10115800D8B41200E7D70BD0010E07D0020E05D085
:10116800030E03D0040E01D0640E406E0ED08150E1
:10117800700AD8B4F7D7C00AD8B4F2D7600AD8B47E
:10118800EDD7300AD8B4E8D7EFD7E0EC02F0B1ECED
:1011980005F0446E1200310E3B18D8A403D0010E9E
:1011A8009EEC09F0310E3C18D8A403D0020E9EEC38
:1011B80009F0310E3D18D8A403D0030E9EEC09F0B7
:1011C800010E436E12000101006F06D084901200D8
:1011D800849212008494120001010051010AD8B4CB
:1011E800F5D7030AD8B4F4D7010AD8A41200F2D765
:1011F8000101006F06D0848012008482120084846A
:10120800120001010051010AD8B4F5D7030AD8B475
:10121800F4D7010AD8A41200F2D749EC0AF08C0ED0
:101228000101026F000E0101036F0C0E0101046F32
:101238002DEC08F0020E4518D8A412004850D8A486
:101248001200F8D760EC0AF0200E0101036F49EC98
:101258000AF04250D8B406D03BEC09F00101036F04
:10126800000E426E5BEC0AF0000E486E1200000E93
:10127800416E000E466E0BD056EC0AF0F00E811847
:10128800D8A4C0EC09F04604D8B4B1EC09F0415038
:10129800D8B4F2D74450120049EC0AF07D0E01018F
:1012A800026F000E0101036F0F0E0101046F2DEC98
:1012B80008F04550D8A412004850D8A41200F9D715
:1012C800000E0101016F06D0000E0101026F01013D
:1012D800023FFDD70101012B01050101006F0C0E32
:1012E80001010065F1D7120082948DEC08F0380EE8
:1012F8002BEC0AF08DEC08F00F0E2BEC0AF0CEEC7C
:1013080009F0010E2BEC0AF0CEEC09F01200016E88
:1013180006D0849012008492120084941200015026
:10132800010AD8B4F6D7030AD8B4F5D7010AD8A465
:101338001200F3D7016E06D0848012008482120056
:10134800848412000150010AD8B4F6D7030AD8B42D
:10135800F5D7010AD8A41200F3D7F00E8118D8A443
:10136800120064EC09F0F00E8118D8A41200000EE7
:10137800466E010E416E12004604D8B4120064ECA9
:1013880009F0F00E8118D8B41200AFEC08F0010E85
:10139800466E120072EC0AF08290828204D0828437
:1013A80036EC0AF0829483BEFAD76FEC0AF012008A
:1013B800F00E8118D8A41200F8EC09F0F00E81188C
:1013C800D8A41200F290000E466E12004604D8B45B
:1013D8001200F8EC09F0F00E8118D8B412006AEC8B
:1013E80008F0010E466E1200000E026E04D0000EC8
:1013F800036E033EFED7022A0204016E0C0E01643E
:10140800F6D7120030303030300030300030300045
:0F141800303100303200303300303200313131AA
:10142800010E8BEC09F0020E8BEC09F0030E8BEC2D
:1014380009F0000E436E12000101016F01C183FF24
:1014480082808292828436EC0AF082941200010132
:10145800016F01C183FF82908292828436EC0AF088
:1014680082941200020E0101006F010100070101C0
:101478000029D8B41200F9D7CD00DC00EB00D20067
:10148800E100F000D700E600F500010E2BEC0AF0B1
:1014980036EC0AF0CEEC09F012008180818281845A
:1014A8008186120081908192819481961200000EAB
:1014B8008A6EF290F2861200000E8A6EF290F29610
:1014C800120081908192819481961200818081829C
:1014D800818481861200000E956E120095681200B4
:020000040020DA
:08000000FFFFFFFFFFFFFFFF00
:020000040030CA
:0E000000FF081F1EFF8081FF0FC00FE00F40A2
:00000001FF
