:0400000053EF00F0CA
:0E0008004382FACF0FF0FBCF10F0A2ED0AF00A
:100018004380D8CFCEF0E8CFCFF0E0CFD0F0FACF02
:10002800D1F0FBCFD2F0E9CFD3F0EACFD4F0E1CFD3
:10003800D5F0E2CFD6F0D9CFD7F0DACFD8F0F3CFDA
:10004800D9F0F4CFDAF0F6CFDBF0F7CFDCF0F8CF69
:10005800DDF0F5CFDEF0DEC0F5FFDDC0F8FFDCC077
:10006800F7FFDBC0F6FFDAC0F4FFD9C0F3FFD8C052
:10007800DAFFD7C0D9FFD6C0E2FFD5C0E1FFD4C0B0
:10008800EAFFD3C0E9FFD2C0FBFFD1C0FAFFD0C05E
:10009800E0FFCFC0E8FFCEC0D8FF439010009AEF32
:0200A80010F056
:100D0000004D6163616E6100526965676100506505
:050D10006C6F6E000095
:100D1600E5C0D9FFE6C0DAFFE3C0E1FFE4C0E2FFC9
:100D2600DFCFE7FF000120EE01F0E551D926E651BD
:100D3600DA22000110EE01F0E351E126E451E2224D
:100D4600DFCFE7FF000120EE02F0E551D926E6519C
:100D5600DA22000110EE02F0E351E126E451E2222C
:100D6600DFCFE7FF000120EE03F0E551D926E6517B
:100D7600DA22000110EE03F0E351E126E451E2220B
:100D8600DFCFE7FF000120EE03F0E351D926E4515F
:100D9600DA22000110EE03F0E351E126E451E222EB
:100DA600E7501F6E000110EE01F0E751E126E85111
:100DB600E222E7501F24D00FDF6E000120EE03F081
:100DC600E351D926E451DA22390EDF6427D0000137
:100DD60020EE03F0E351D926E451DA22000110EEA9
:100DE60003F0E351E126E451E222E7501F6E1F5063
:100DF6000001DF6FE06B000E0001E26F3A0EE16F5B
:100E060006EC10F00001DF51300FDF6E000120EE1E
:100E160002F0E351D926E451DA22DF2A000120EE5E
:100E260002F0E351D926E451DA22000110EE02F075
:100E3600E351E126E451E222E7501F6EE7C0E1FFED
:100E4600E8C0E2FFE7501F24D00FDF6E000120EE5E
:100E560002F0E351D926E451DA22350EDF6427D0B9
:100E6600000120EE02F0E351D926E451DA22000116
:100E760010EE02F0E351E126E451E222E7501F6E44
:100E86001F500001DF6FE06B000E0001E26F360EAF
:100E9600E16F06EC10F00001DF51300FDF6E00014C
:100EA60020EE01F0E351D926E451DA22DF2AE3C02D
:100EB600D9FFE4C0DAFF320EDF602FD0000120EE4A
:100EC60001F0E351D926E451DA22390EDF6412002B
:100ED600000120EE01F0E351D926E451DA220001A7
:100EE60010EE01F0E351E126E451E222E7501F6ED5
:100EF6001F500001DF6FE06B000E0001E26F3A0E3B
:100F0600E16F06EC10F00001DF51300FDF6EE3C039
:100F1600D9FFE4C0DAFFDF2A1200000120EE01F05B
:100F2600E351D926E451DA22330EDF6424D00001DE
:100F360020EE01F0E351D926E451DA22000110EE49
:100F460001F0E351E126E451E222E7501F6E1F5003
:100F56000001DF6FE06B000E0001E26F340EE16FFF
:100F660006EC10F00001DF51300FDF6EE3C0D9FF51
:100F7600E4C0DAFFDF2AE3C0D9FFE4C0DAFF320EAD
:100F8600DF641200E3C0D9FFE4C0DAFFDF501F6E52
:100F96001F500001DF6FE06B000E0001E26F330EA1
:100FA600E16F06EC10F00001DF51300FE3C0D9FF0E
:100FB600E4C0DAFFDF6E1200F8EC13F0220E000137
:100FC600DF6F000E0001E06F0B0E0001E16F50ECC9
:100FD60010F01CD1C00EDAEC13F0BF0E0001DF6F6B
:100FE600000E0001E06F030E0001E16F50EC10F0FF
:100FF600C20E0001DF6F000E0001E06F030E00015C
:10100600E16F50EC10F0000E0101546F080E010163
:10101600546501D092D001015451020D000EF32403
:10102600D96E010EF420DA6EDECF55F1DDCF56F122
:1010360055C1D9FF56C1DAFF240EDE18D8B47AD0CE
:1010460055C1D9FF56C1DAFF0001BF51DE18D8A439
:1010560071D0010120EE01F05551D9265651DA2200
:101066000001C051DE18D8A465D0010120EE02F0BF
:101076005551D9265651DA220001C251DE18D8A49C
:1010860059D0010120EE03F05551D9265651DA22E6
:101096000001C351DE18D8A44DD0030E01015461DE
:1010A60016D07F0E0001E36F000E0001E46F55C1FC
:1010B600E5F056C1E6F0C50E0001E76F000E00012F
:1010C600E86F8BEC06F0010ECDEC12F033D0060E75
:1010D6000101546116D0840E0001E36F000E000179
:1010E600E46F55C1E5F056C1E6F0C80E0001E76FA2
:1010F600000E0001E86F8BEC06F0020ECDEC12F04C
:1011060019D0090E0101546115D0890E0001E36F53
:10111600000E0001E46F55C1E5F056C1E6F0CB0EB6
:101126000001E76F000E0001E86F8BEC06F0030E7E
:10113600CDEC12F00101542B69D7000E0101516F5D
:10114600020E0101516501D061D001015151020D1C
:10115600660EF324D96E000EF420DA6EDECF52F15D
:10116600DDCF53F152C1D9FF53C1DAFF240EDE1889
:10117600D8B449D052C1D9FF53C1DAFF0001BF51DB
:10118600DE18D8A440D0010120EE01F05251D92634
:101196005351DA220001C051DE18D8A434D001011F
:1011A60020EE02F05251D9265351DA220001C251E3
:1011B600DE18D8A428D0010120EE03F05251D9261A
:1011C6005351DA220001C351DE18D8A41CD0010104
:1011D6005129BAEC12F0000E0101506F030E010105
:1011E600506501D010D001015051010DF35001019D
:1011F6005225D96EF45001015321DA6E240EDF6EAA
:101206000101502BEBD70101512B9AD70001ED05B7
:10121600D8A404D00001EE51D8B4DCD64EEC11F0BF
:10122600BCEC13F012000E6EABD00001ED51D8A449
:101236000CD02D0E0001EB6F000E0001EC6F360E88
:101246000001E96F000E0001EA6F020E0001ED19C0
:10125600D8A406D0390E0001EB6F000E0001EC6F2A
:10126600010E0001EE6F12000001ED51D8A40CD062
:10127600300E0001EB6F000E0001EC6F370E00011F
:10128600E96F000E0001EA6F020E0001ED19D8A405
:1012960006D03A0E0001EB6F000E0001EC6F010E56
:1012A6000001EE6F12000001ED51D8A40CD0330EF0
:1012B6000001EB6F000E0001EC6F380E0001E96FC4
:1012C600000E0001EA6F0001ED05D8A406D02D0E30
:1012D6000001EB6F000E0001EC6F020E0001ED192C
:1012E600D8A406D03B0E0001EB6F000E0001EC6F98
:1012F600010E0001EE6F1200000E0001ED6F1200EC
:10130600010E0001ED6F1200020E0001ED6F1200DA
:1013160000EC14F0020EC45CD8B009D0080E036EBF
:101326000D0E046E060E056EDEEC10F01200C30400
:10133600020EC458D8A012000E0E036E0D0E046ED7
:10134600060E056EDEEC10F0C00EEEEC13F08AEC25
:1013560013F0010E036E0D0E046E070E056EDEEC25
:1013660010F01200020E0001ED19D8A412003F5031
:10137600D8A403D034EC12F01200B0EC13F0120033
:101386000E50230AD8B4EED7090AD8B4C1D71A0A20
:10139600D8B41200010AD8B448D7030AD8B464D71F
:1013A600010AD8B480D7070AD8B41200010AD8B403
:1013B6001200030AD8B41200010AD8B412000F0AA8
:1013C600D8B41200010AD8B41200780AD8B494D757
:1013D600030AD8B495D7010AD8B496D7070A1200DB
:1013E60051C155F10101566B576B01015035010191
:1013F600553701E35681010155510101586F01012D
:101406005851D8A40AD0000E01014F6F000E0101F9
:10141600506F000E0101516F120054C155F10101C8
:10142600566B576B010153350101553701E3568160
:101436000101555101015D6F01015D51D8A40AD02A
:10144600000E01014F6F000E0101506F000E0101E9
:10145600516F120001015D517B0F0101582751C1E7
:101466005DF10101545101015D1B800E01015D1703
:101476000101508F0101538FFF0E01015217FF0E1C
:1014860001015317000E01015417000E0101596F97
:10149600000E01015A6F000E01015B6F070E01017C
:1014A6005C6F01014FA10CD0010152510101592776
:1014B6000101535101015A230101545101015B23DA
:1014C6000101D890513350334F330101D890523730
:1014D6005337543701015C2FE4D7090E01015C6FC5
:1014E60001014FA10CD001015251010159270101FF
:1014F600535101015A230101545101015B2301019A
:10150600D890513350334F330101D8905B335A335F
:10151600593301015C2FE4D759C1DFF05AC1E0F01D
:101526005BC1E1F058C1E2F05DC1E3F0FDEC0CF007
:10153600DFC04FF1E0C050F1E1C051F112000600EA
:10154600E9CF11F0EACF12F0E1CF13F0E2CF14F0B9
:10155600D9CF15F0DACF16F0F3CF17F0F4CF18F095
:10156600F6CF19F0F7CF1AF0F8CF1BF0F5CF1CF035
:10157600F2B00CD00ED02AEC14F0F00E8118D8A4DC
:101586006EEC13F04104D8B460EC13F0F2A065D011
:10159600F2D7F2BAF2A45FD0212A350E2118D8A4C8
:1015A60054D0300E216E0001C32B3A0E0001C31930
:1015B600D8A44BD0300E0001C36F0001C22B360EEB
:1015C6000001C219D8A441D0320E0001BF6110D06B
:1015D600300E0001C26F0001C02B3A0E0001C01987
:1015E600D8A433D0300E0001C06F0001BF2B2DD020
:1015F600330E0001C06106D0300E0001C26F00013B
:10160600C02B23D0300E216E300E0001C26F300E7B
:101616000001C36F300E0001BF6F300E0001C06FB6
:10162600202A370E2018D8A410D0300E216E300E86
:101636000001C26F300E0001C36F300E0001BF6F94
:10164600300E0001C06F300E206EF2943A0ED76E47
:10165600980ED66E02D09EBC9E9C1CC0F5FF1BC089
:10166600F8FF1AC0F7FF19C0F6FF18C0F4FF17C03D
:10167600F3FF16C0DAFF15C0D9FF14C0E2FF13C08E
:10168600E1FF12C0EAFF11C0E9FF10C0FBFF0FC067
:10169600FAFF43921100000E1D6E030E1D6401D069
:1016A600120016EC14F07DD081903C04D8B481B8B9
:1016B60003D0010E426E1200020E3C18D8B481BA55
:1016C60003D0010E426E1200030E3C18D8B481BC42
:1016D60003D0010E426E1200040E3C18D8B481BE2F
:1016E6006DD0010E426E120081923C04D8B481B8CE
:1016F60003D0020E426E1200020E3C18D8B481BA14
:1017060003D0020E426E1200030E3C18D8B481BC00
:1017160003D0020E426E1200040E3C18D8B481BEED
:101726004DD0020EDFD781943C04D8B481B803D0E3
:10173600030E426E1200020E3C18D8B481BA03D0D2
:10174600030E426E1200030E3C18D8B481BC03D0BF
:10175600030E426E1200040E3C18D8B481BE2ED081
:10176600030EC0D781963C04D8B481B803D0040ECA
:10177600426E1200020E3C18D8B481BA03D0040E91
:10178600426E1200030E3C18D8B481BC03D0040E7E
:10179600426E1200040E3C18D8B481BE0FD0040E5F
:1017A600A1D71D50000AD8B47FD7010AD8B49CD758
:1017B600030AD8B4B8D7010AD8B4D4D71D2A6DD72E
:1017C600000E016E030E016401D012002FEC14F01E
:1017D6007DD081903C04D8B481B803D0010E426E0E
:1017E6001200020E3C18D8B481BA03D0010E426E24
:1017F6001200030E3C18D8B481BC03D0010E426E11
:101806001200040E3C18D8B481BE6DD0010E426E93
:10181600120081923C04D8B481B803D0020E426E05
:101826001200020E3C18D8B481BA03D0020E426EE2
:101836001200030E3C18D8B481BC03D0020E426ECF
:101846001200040E3C18D8B481BE4DD0020EDFD76C
:1018560081943C04D8B481B803D0030E426E1200C2
:10186600020E3C18D8B481BA03D0030E426E1200A1
:10187600030E3C18D8B481BC03D0030E426E12008E
:10188600040E3C18D8B481BE2ED0030EC0D7819664
:101896003C04D8B481B803D0040E426E1200020E86
:1018A6003C18D8B481BA03D0040E426E1200030E5F
:1018B6003C18D8B481BC03D0040E426E1200040E4C
:1018C6003C18D8B481BE0FD0040EA1D70150000A2F
:1018D600D8B47FD7010AD8B49CD7030AD8B4B8D7EE
:1018E600010AD8B4D4D7012A6DD725EC14F0200EFE
:1018F6000101506FF8EC13F0EBC0D9FFECC0DAFF32
:10190600310EDE18D8A40CD0780E0001DF6F000E61
:101916000001E06F070E0001E16F50EC10F05FD0A0
:101926006F0E0001DF6F000E0001E06F090E00016F
:10193600E16F50EC10F053D0A5EC12F00101506F9E
:10194600F8EC13F0310E01015019D8A412D0EBC0F7
:10195600D9FFECC0DAFF310EDF6E780E0001DF6FC3
:10196600000E0001E06F070E0001E16F50EC10F071
:1019760036D0300E01015019D8A412D0EBC0D9FFD1
:10198600ECC0DAFF300EDF6E6F0E0001DF6F000E67
:101996000001E06F090E0001E16F50EC10F01FD05E
:1019A600EBC0D9FFECC0DAFF310EDE18D8A40CD09C
:1019B600780E0001DF6F000E0001E06F070E0001D8
:1019C600E16F50EC10F00BD06F0E0001DF6F000ED0
:1019D6000001E06F090E0001E16F50EC10F0230EDC
:1019E60001015019D8A4A8D720EC14F0000E00016C
:1019F600EE6F12000001E2510001D8B408D00001D8
:101A0600DF510001E0110001E111D8A411D0000E50
:101A16000001DF6F000E0001E06F000E0001E16FB4
:101A260012000001E22B0001D890E133E033DF33EE
:101A3600000E0001DF151D6E000E0001E0151E6E82
:101A4600FE0E0001E1151F6E1D501E101F10D8B4AA
:101A560011D0E7D70001E22B010E0001DF27000EAF
:101A66000001E023000E0001E1230001D890E133DC
:101A7600E033DF33000E0001DF151D6E000E00019E
:101A8600E0151E6EFF0E0001E1151F6E1D501E10A3
:101A96001F10D8B408D0DED70001E2070001D890A5
:101AA600DF37E037E1370001E0BF04D0020E000166
:101AB600E261F2D70001E2B102D00001E09F00012D
:101AC600D890E2330001E2510001E1130001E35135
:101AD6000001D8B402D00001E18FDFC0DFF0E0C022
:101AE600E0F0E1C0E1F0120025EC14F0200E010157
:101AF600516F000E0101506FF8EC13F0440E000117
:101B0600DF6F010E0001E06F0B0E0001E16F50EC7C
:101B160010F0EBC0D9FFECC0DAFFDF50D0EC13F0C9
:101B2600000120EE01F0EB51D926EC51DA22DF500C
:101B3600D0EC13F037D0A5EC12F00101516F230E53
:101B460001015119D8B42ED0010151510101D8B467
:101B560029D050C14FF1010E01014F1701014F511C
:101B66000001EB25D96E0101000E0001EC21DA6EB1
:101B760051C1DFFFF8EC13F0EBC0D9FFECC0DAFF80
:101B8600DF50D0EC13F0000120EE01F0EB51D92626
:101B9600EC51DA22DF50D0EC13F0250ED0EC13F026
:101BA6000101502B230E01015119D8A4C4D7EBC053
:101BB6001DF0ECC01EF01CEC12F0E9C0D9FFEAC023
:101BC600DAFFDF6E20EC14F0000E0001EE6F12005B
:101BD600600ED36E070EB46EB59E0F0EC16E000E6C
:101BE600816E000E8A6E9368000E826E000E8B6EFA
:101BF600000E946E9390939293949396849084920D
:101C060084948D908D928D94969096929694D08E83
:101C1600F28EF28CF19EF286F290F18034EC14F0A2
:101C2600E0EC12F0000E0001ED6F000E3D6E000EAE
:101C36000001EE6F000E416EF184F28A070ED56E3A
:101C46003A0ED76E980ED66ED58EB4680C0EC16E4F
:101C5600950EC06E0001EE51D8B40AD01ED05CECD1
:101C66000EF0F8D7DFEC07F0F5D703EC12F0F2D759
:101C76000001ED51000AD8B4F2D7010AD8B4F2D760
:101C8600030AD8B4F2D7E6D777EC0DF0E3D77AECAF
:101C960012F0E0D778EC0CF0DDD70001ED51000A28
:101CA600D8B4F2D7010AD8B4F2D7030AD8B4F2D717
:101CB600D1D7A4EC13F0F8EC13F0290E0001DF6F76
:101CC600010E0001E06F0F0E0001E16F50EC10F005
:101CD60051D0000E0101696F020E0101696501D044
:101CE60049D001016929E9EC11F0C3CFE4F0C4CF72
:101CF600E5F090EC12F0E4C05EF1E5C05FF1E6C0FD
:101D060060F16CC052F16DC053F16EC054F1010127
:101D16006951020D600EF324D96E000EF420DA6EBE
:101D2600DECF67F1DDCF68F167C1D9FF68C1DAFFA1
:101D3600DF504CEC12F0E4C04FF1E5C050F1E6C0C4
:101D460051F1F3EC09F04FC161F150C162F151C19B
:101D560063F1A2EC0FF00101D8B005D001016929A9
:101D6600CDEC12F004D001016929BAEC12F00101A0
:101D7600692BB2D70001ED51D8A404D00001EE5171
:101D8600D8B4A7D7BCEC13F0C6EC13F0120042048B
:101D9600D8B409D016D0310E1200320E1200330E0E
:101DA6001200410E12003C50010AD8B4F4D7030ABF
:101DB600D8B4F3D7010AD8B4F2D7070AD8B4F1D702
:101DC60050D0020E4218D8B409D016D0340E1200E4
:101DD600350E1200360E1200420E12003C50010A59
:101DE600D8B4F4D7030AD8B4F3D7010AD8B4F2D7D3
:101DF600070AD8B4F1D735D0030E4218D8B409D0A3
:101E060016D0370E1200380E1200390E1200430E8D
:101E160012003C50010AD8B4F4D7030AD8B4F3D759
:101E2600010AD8B4F2D7070AD8B4F1D71AD0040EEB
:101E36004218D8B409D015D02A0E1200300E12005E
:101E4600230E1200440E12003C50010AD8B4F4D7F7
:101E5600030AD8B4F3D7010AD8B4F2D7070AD8B41C
:101E6600F1D7FF0E12004204D8B409D016D0310EB5
:101E76001200320E1200330E1200410E12003C50B8
:101E8600010AD8B4F4D7030AD8B4F3D7010AD8B4F0
:101E9600F2D7070AD8B4F1D750D0020E4218D8B4F8
:101EA60009D016D0340E1200350E1200360E12006E
:101EB600420E12003C50010AD8B4F4D7030AD8B433
:101EC600F3D7010AD8B4F2D7070AD8B4F1D735D078
:101ED600030E4218D8B409D016D0370E1200380EA9
:101EE6001200390E1200430E12003C50010AD8B4FB
:101EF600F4D7030AD8B4F3D7010AD8B4F2D7070A3D
:101F0600D8B4F1D71AD0040E4218D8B409D015D0D7
:101F16002A0E1200300E1200230E1200440E12007A
:101F26003C50010AD8B4F4D7030AD8B4F3D7010A4F
:101F3600D8B4F2D7070AD8B4F1D7FF0E12000101C0
:101F460060AF1DD05EC164F15FC165F160C166F12D
:101F56000101641F651F661F642B000E652366233F
:101F6600000E0101642501015E6F000E010165216D
:101F760001015F6F800E010166210101606F0101A1
:101F860063AF1DD061C164F162C165F163C166F1E1
:101F96000101641F651F661F642B000E65236623FF
:101FA600000E010164250101616F000E010165212A
:101FB6000101626F800E010166210101636F000E4F
:101FC60001015E1B000E01015F1B800E0101601BFB
:101FD600000E0101611B000E0101621B800E010152
:101FE600631B0101615101015E5D01016251010145
:101FF6005F590101635101016059D8B002D0D890F0
:102006001200D8801200000E1E6E0001E0AF07D04D
:102016000001DF6DE01FD8B0E02B010E1E6E00013F
:10202600E2AF05D00001E16DE21FD8B0E22B00015E
:10203600E1510001E211D8B423D0010E1D6E05D086
:102046000001D890E137E2371D2A0001E2AFF8D748
:102056000001E1510001DF5D0001E2510001E0599C
:10206600D8A008D00001E1510001DF5F0001E25174
:102076000001E05B0001D890E233E1331D2EE8D782
:102086001E50D8B405D00001DF6DE01FD8B0E02B9C
:10209600DFC0DFF0E0C0E0F01200000E1F6E1FD0C0
:1020A6001F50010DDFC0E2F0E0C0E3F0F350000185
:1020B600E227F4500001E323E2C0F6FFE3C0F7FF96
:1020C600F86A0C0EF76403D00800F55005D0F6CF79
:1020D600E9FFF7CFEAFFEF50D0EC13F01F2AFF0E0F
:1020E6000001E26FFF0E0001E36F0001E151000104
:1020F600E46FE56B0001E2510001E4270001E351C2
:102106000001E5231F500001E66FE76B0001E45173
:102116000001E65D0001E751800A0001E86F000159
:10212600E551800A0001E859D8B01200B9D700017C
:10213600EE6BED6BEC6BEB6BEA6BE96B00EE3CF078
:10214600070EEE6AE806FDE1FC0EF66E220EF76E4D
:10215600000EF86E01EE00F010EE4FF00900F5CF1C
:10216600EEFFE550E150FAE12E0EF66E220EF76E06
:10217600000EF86E00EE60F010EE6EF00900F5CF7E
:10218600EEFFE550E150FAE1500EF66E260EF76EC0
:10219600000EF86E00EE20F010EE1CF00900F5CFF0
:1021A600EEFFE550E150FAE143904392000EF86EDF
:1021B6000001EBEF0DF0000E0D6E1DD00D50010D60
:1021C60003C006F004C007F0F3500626F4500722B9
:1021D60006C0F6FF07C0F7FFF86A0C0EF76403D0D7
:1021E6000800F55005D0F6CFE9FFF7CFEAFFEF502C
:1021F600E4EC13F00D2AFF0E066EFF0E076E055077
:10220600086E096A06500826075009220D500A6E04
:102216000B6A08500A5C0B50800A0C6E0950800A43
:102226000C58D8B01200CAD73600370038007F00E5
:1022360084008900D72341496E616374697665001D
:10224600416374697665002424242400242424240C
:102256000024242424003030303100303030330064
:102266003030303000303030340024242424002430
:10227600242424003030303700242424240024244D
:10228600242400303030003030003030003032004E
:10229600303100303100000E0001E16F020E000106
:1022A600E16501D012000001E151020D660EF32432
:1022B600D96E000EF420DA6EDECFDFF0DDCFE0F06F
:1022C600000E0001E26F030E0001E26501D010D09E
:1022D6000001E251010DF3500001DF25D96EF450E3
:1022E6000001E021DA6E240EDF6E0001E22BEBD74F
:1022F6000001E12BD3D78E009D00AC009300A20015
:10230600B1009800A700B60048656C6C6F20576F47
:10231600726C640043617374656C6C6F203C0041A1
:1023260075746F6D61746963206D6F6465004D61CE
:102336006E75616C206D6F64650048756D696469C2
:0523460074793A20004B
:10234C000BD0010E07D0020E05D0030E03D0040EE5
:10235C0001D0640E3C6E0ED08150700AD8B4F7D701
:10236C00C00AD8B4F2D7600AD8B4EDD7300AD8B4C2
:10237C00E8D7EFD7E3EC0BF036EC0FF0406E4050A3
:10238C0016EC09F012000BD0010E07D0020E05D08E
:10239C00030E03D0040E01D0640E3C6E0ED081509F
:1023AC00700AD8B4F7D7C00AD8B4F2D7600AD8B438
:1023BC00EDD7300AD8B4E8D7EFD74EEC0BF0CAEC17
:1023CC000EF0406E12001D6E9E9C9D8C07D0010E6F
:1023DC0003D0050E01D0090EC26E0AD01D50010AA1
:1023EC00D8B4F5D7030AD8B4F4D7010AD8B4F3D7C4
:1023FC00C282C2B2FED79D9C1200F8EC13F0380ECC
:10240C000001DF6F010E0001E06F0C0E0001E16FA7
:10241C0050EC10F0020E0001ED19D8A404D000010C
:10242C00EE51D8B4F7D798EC13F0120020EE01F06F
:10243C001D50D9261E50DA22DF50D00F0001DF6F5D
:10244C001DC0D9FF1EC0DAFFDF50D00F0A0DF3CF2D
:10245C00E0F00001DF510001E0251200310E3918C7
:10246C00D8A403D0010E06EC13F0310E3A18D8A400
:10247C0003D0020E06EC13F0310E3B18D8A403D097
:10248C00030E06EC13F0010E3F6E12000001E76F15
:10249C000001E7510001DF6FE06BE16B8E0E000174
:1024AC00E26F000E0001E36FFDEC0CF0DFC0E4F016
:1024BC00E0C0E5F0E1C0E6F01200020E1D6EA20EC7
:1024CC001E6E1F680CD0A20E1E6E05D01F681F0654
:1024DC001F28D8A4FCD71E061E28D8A4F7D71D0683
:1024EC001D28D8B41200EFD725EC14F0200E0001F3
:1024FC00DF6FF8EC13F03E50D8B406D0A5EC12F018
:10250C000001DF6F000E3E6E20EC14F0000E000197
:10251C00EE6F1200E4C0DFF0E5C0E0F00001E16B0B
:10252C008E0E0001E26F000E0001E36FFDEC0CF06B
:10253C00DFC0E4F0E0C0E5F0E1C0E6F01200000E10
:10254C003D6E000E416E0BD01BEC14F0F00E81189A
:10255C00D8A436EC13F04104D8B419EC13F03D5068
:10256C00D8B4F2D7405012001D6E06D084901200E1
:10257C0084921200849412001D50010AD8B4F6D72C
:10258C00030AD8B4F5D7010AD8A41200F3D71D6EEC
:10259C0006D08480120084821200848412001D50A4
:1025AC00010AD8B4F6D7030AD8B4F5D7010AD8A4CF
:1025BC001200F3D7829463EC12F0380EDAEC13F0BD
:1025CC0063EC12F00F0EDAEC13F052EC13F0010E78
:1025DC00DAEC13F052EC13F01200016E06D084907A
:1025EC00120084921200849412000150010AD8B493
:1025FC00F6D7030AD8B4F5D7010AD8A41200F3D73A
:10260C00016E06D084801200848212008484120031
:10261C000150010AD8B4F6D7030AD8B4F5D7010A89
:10262C00D8A41200F3D7F00E8118D8A4120044ECF1
:10263C0013F0F00E8118D8A41200000E416E010E9A
:10264C003D6E1200303054696D6572206D6F64659B
:10265C000035300035300035300032323231313116
:10266C004104D8B4120044EC13F0F00E8118D8B425
:10267C001200C9EC11F0010E416E1200000E1E6E1C
:10268C0004D0000E1F6E1F3EFED71E2A1E041D6EA8
:10269C000C0E1D64F6D712003AEC14F08290828274
:1026AC0004D0828408EC14F0829483BEFAD734EC04
:1026BC0014F01200F00E8118D8A412007CEC13F068
:1026CC00F00E8118D8A41200F290000E416E120088
:1026DC004104D8B412007CEC13F0F00E8118D8B47D
:1026EC001200A6EC11F0010E416E1200000E026EEB
:1026FC0004D0000E036E033EFED7022A0204016EC4
:10270C000C0E0164F6D712003CEC14F0829082821D
:10271C0004D082840FEC14F0829483BEFAD737EC89
:10272C0014F01200010EBAEC12F0020EBAEC12F018
:10273C00030EBAEC12F0000E3F6E1200000E806E0B
:10274C00000E896E000E926E9280928292849D9CF5
:10275C009F8C1200010EF3EC12F0020EF3EC12F04F
:10276C00030EF3EC12F0000E3F6E1200010EBAECE9
:10277C0012F0020EBAEC12F0030EBAEC12F01200C8
:10278C00000E806E000E896E000E926E9D9C9E9CBB
:10279C00C29212001E6E1EC083FF828082928284BF
:1027AC0008EC14F0829412001E6E1EC083FF8290FF
:1027BC008292828408EC14F082941200026E02C0A1
:1027CC0083FF8280829282840FEC14F08294120038
:1027DC00026E02C083FF8290829282840FEC14F00E
:1027EC0082941200010EDAEC13F008EC14F052ECA7
:1027FC0013F01200010EEEEC13F00FEC14F08AEC57
:10280C0013F01200020E1D6E1D061D28D8B4120006
:10281C00FBD7020E016E01060128D8B41200FBD7BB
:10282C008180818281848186120081908192819441
:10283C0081961200000E8A6EF290F2861200000E43
:10284C008A6EF290F2961200819081928194819618
:10285C00120081808182818481861200000E956E27
:10286C001200000E956E1200956812009568120009
:020000040020DA
:08000000FFFFFFFFFFFFFFFF00
:020000040030CA
:0E000000FF081F1EFF8081FF0FC00FE00F40A2
:00000001FF
