:0400000053EF00F0CA
:0E0008004482FACF04F0FBCF05F00FED0CF0B0
:100018004480D8CF12F0E8CF13F0E0CF14F0FACF35
:1000280015F0FBCF16F0E9CF17F0EACF18F0E1CFC3
:1000380019F0E2CF1AF0D9CF1BF0DACF1CF0F3CFCA
:100048001DF0F4CF1EF0F6CF1FF0F7CF20F0F8CF59
:1000580021F0F5CF22F022C0F5FF21C0F8FF20C023
:10006800F7FF1FC0F6FF1EC0F4FF1DC0F3FF1CC042
:10007800DAFF1BC0D9FF1AC0E2FF19C0E1FF18C0A0
:10008800EAFF17C0E9FF16C0FBFF15C0FAFF14C04E
:10009800E0FF13C0E8FF12C0D8FF4490100056EFED
:0200A80012F054
:100D000000506572696F64206F662074696D653A82
:100D10000054696D657320706572206461793A00D2
:100D2000436F6E66696720486F757200202020202F
:090D3000200054696D65200000EB
:100D3A007BEC15F0200E0101496F64EC15F00001FF
:100D4A00FE51D8A4F6D0110E0001EE6F0D0E00016F
:100D5A00EF6F0F0E0001F06FC2EC11F05CEC15F0B2
:100D6A00300E1DEC15F014D042EC14F00101496F5D
:100D7A005CEC15F0010149511DEC15F0230E01013F
:100D8A004919D8B405D001014951D00F0101456F65
:100D9A00230E01014919D8A4E7D7000E0101486FB3
:100DAA006CD001014851FFC0F9F00001FA6B000153
:100DBA00F927000EFA23D8900001F937FA37600EA6
:100DCA000001F925D96E000E0001FA21DA6EDECF94
:100DDA0046F1DDCF47F1000E0101426F200E0101FD
:100DEA00496F64EC15F0320E0001EE6F0D0E000132
:100DFA00EF6F060E0001F06FC2EC11F001014851CD
:100E0A00310F1DEC15F05CEC15F046C1EEF047C150
:100E1A00EFF0050E0001F06FC2EC11F027D042ECA2
:100E2A0014F00101496F230E01014919D8B41ED0EB
:100E3A0042C1F9F0030E0001F9170001F95101014D
:100E4A004625D96E0001000E01014721DA6E49C11B
:100E5A00DFFF5CEC15F046C1EEF047C1EFF0050E7E
:100E6A000001F06FC2EC11F00101422B230E0101C7
:100E7A004919D8A4D4D70101482B010145510101D0
:100E8A00485DD8A08ED70101455198EC12F064EC68
:100E9A0015F0010E0001EE6F0D0E0001EF6F100E3E
:100EAA000001F06FC2EC11F05CEC15F0FCC0EEF042
:100EBA00FDC0EFF0030E0001F06FC2EC11F0200E3E
:100ECA000101496F000E0101436F2DD042EC14F06D
:100EDA000101496F230E01014919D8B424D043C135
:100EEA00ECF00001ED6B000E0001EF6F030EEE6FE8
:100EFA0071EC11F00001EC510001FC25D96E0001E2
:100F0A00ED510001FD21DA6E49C1DFFF5CEC15F0FD
:100F1A00FCC0EEF0FDC0EFF0030E0001F06FC2EC72
:100F2A0011F00101432B230E01014919D8B46ED0E7
:100F3A00CDD7000E0101446F20EE7EF011EE3DF098
:100F4A00040EDBCFE3FFE806FCE2200E0001EE6FA1
:100F5A000D0E0001EF6F0C0E0001F06FC2EC11F0E4
:100F6A005CEC15F00001DD511DEC15F00001DE51BD
:100F7A001DEC15F03A0E1DEC15F00001E0511DECC8
:100F8A0015F00001E1511DEC15F033D042EC14F0DC
:100F9A000101496F2C0E0001EE6F0D0E0001EF6F7B
:100FAA00060E0001F06FC2EC11F0230E010149197F
:100FBA00D8B41FD001014451030B0001F96FFA6B39
:100FCA003D0E0001F925D96E010E0001FA21DA6EF3
:100FDA0049C1DFFF5CEC15F03D0E0001EE6F010E1A
:100FEA000001EF6F050E0001F06FC2EC11F0010174
:100FFA00442B230E01014919D8A4C8D73DC1DDF0FD
:10100A003EC1DEF03FC1E0F040C1E1F076EC15F000
:10101A00000E0001FE6F000E436E1200F4C0D9FFED
:10102A00F5C0DAFFF2C0E1FFF3C0E2FFDFCFE7FF6E
:10103A00000120EE01F0F451D926F551DA2200011F
:10104A0010EE01F0F251E126F351E222DFCFE7FF81
:10105A00000120EE02F0F451D926F551DA220001FE
:10106A0010EE02F0F251E126F351E222DFCFE7FF60
:10107A00000120EE03F0F451D926F551DA220001DD
:10108A0010EE03F0F251E126F351E222DFCFE7FF3F
:10109A00000120EE03F0F251D926F351DA220001C1
:1010AA0010EE03F0F251E126F351E222E75000017B
:1010BA00F86F000110EE01F0F651E126F751E22235
:1010CA00E7500001F825D00FDF6E000120EE03F093
:1010DA00F251D926F351DA22390EDF6429D0000100
:1010EA0020EE03F0F251D926F351DA22000110EE74
:1010FA0003F0F251E126F351E222E7500001F86FC2
:10110A000001F8510001EC6FED6B000E0001EF6F6A
:10111A003A0EEE6F71EC11F00001EC51300FDF6EF8
:10112A00000120EE02F0F251D926F351DA22DF2A29
:10113A00000120EE02F0F251D926F351DA22000121
:10114A0010EE02F0F251E126F351E222E7500001DB
:10115A00F86FF6C0E1FFF7C0E2FFE7500001F8259B
:10116A00D00FDF6E000120EE02F0F251D926F351C2
:10117A00DA22350EDF6429D0000120EE02F0F251A6
:10118A00D926F351DA22000110EE02F0F251E126DB
:10119A00F351E222E7500001F86F0001F851000113
:1011AA00EC6FED6B000E0001EF6F360EEE6F71EC17
:1011BA0011F00001EC51300FDF6E000120EE01F05A
:1011CA00F251D926F351DA22DF2AF2C0D9FFF3C04D
:1011DA00DAFF320EDF6031D0000120EE01F0F25169
:1011EA00D926F351DA22390EDF641200000120EE0B
:1011FA0001F0F251D926F351DA22000110EE01F082
:10120A00F251E126F351E222E7500001F86F0001A2
:10121A00F8510001EC6FED6B000E0001EF6F3A0E12
:10122A00EE6F71EC11F00001EC51300FDF6EF2C07D
:10123A00D9FFF3C0DAFFDF2A1200000120EE01F025
:10124A00F251D926F351DA22330EDF6426D0000197
:10125A0020EE01F0F251D926F351DA22000110EE04
:10126A0001F0F251E126F351E222E7500001F86F52
:10127A000001F8510001EC6FED6B000E0001EF6FF9
:10128A00340EEE6F71EC11F00001EC51300FDF6E8D
:10129A00F2C0D9FFF3C0DAFFDF2AF2C0D9FFF3C0E8
:1012AA00DAFF320EDF641200F2C0D9FFF3C0DAFFB0
:1012BA00DF500001F86F0001F8510001EC6FED6B8F
:1012CA00000E0001EF6F330EEE6F71EC11F00001AA
:1012DA00EC51300FF2C0D9FFF3C0DAFFDF6E120013
:1012EA0064EC15F0860E0001EE6F000E0001EF6F40
:1012FA000B0E0001F06FC2EC11F01CD1C00E28ECED
:10130A0015F0DD0E0001EE6F000E0001EF6F030E07
:10131A000001F06FC2EC11F0E00E0001EE6F000E5A
:10132A000001EF6F030E0001F06FC2EC11F0000E26
:10133A000101416F080E0101416501D092D00101FE
:10134A004151020D600EF324D96E000EF420DA6EBC
:10135A00DECF42F1DDCF43F142C1D9FF43C1DAFF0B
:10136A00240EDE18D8B47AD042C1D9FF43C1DAFFBD
:10137A000001DD51DE18D8A471D0010120EE01F080
:10138A004251D9264351DA220001DE51DE18D8A48F
:10139A0065D0010120EE02F04251D9264351DA22EA
:1013AA000001E051DE18D8A459D0010120EE03F063
:1013BA004251D9264351DA220001E151DE18D8A45C
:1013CA004DD0030E0101416116D0A10E0001F26F4A
:1013DA00000E0001F36F42C1F4F043C1F5F02C0E88
:1013EA000001F66F000E0001F76F13EC08F0010E12
:1013FA0018EC14F033D0060E0101416116D0A60E86
:10140A000001F26F000E0001F36F42C1F4F043C114
:10141A00F5F02F0E0001F66F000E0001F76F13ECC6
:10142A0008F0020E18EC14F019D0090E01014161FE
:10143A0015D0AB0E0001F26F000E0001F36F42C12E
:10144A00F4F043C1F5F0320E0001F66F000E000110
:10145A00F76F13EC08F0030E18EC14F00101412B9E
:10146A0069D7000E01013E6F020E01013E6501D0EF
:10147A0061D001013E51020D780EF324D96E000E9F
:10148A00F420DA6EDECF3FF1DDCF40F13FC1D9FF64
:10149A0040C1DAFF240EDE18D8B449D03FC1D9FFC3
:1014AA0040C1DAFF0001DD51DE18D8A440D00101A5
:1014BA0020EE01F03F51D9264051DA220001DE51D7
:1014CA00DE18D8A434D0010120EE02F03F51D9260B
:1014DA004051DA220001E051DE18D8A428D00101D7
:1014EA0020EE03F03F51D9264051DA220001E151A2
:1014FA00DE18D8A41CD001013E2903EC14F0000E1A
:10150A0001013D6F030E01013D6501D010D00101BB
:10151A003D51010DF35001013F25D96EF4500101EF
:10152A004021DA6E240EDF6E01013D2BEBD701015B
:10153A003E2B9AD74004D8A403D04350D8B4DED661
:10154A00D4EC12F03EEC15F01200026E84D040503A
:10155A00D8A408D0290E3A6E000E3B6EE90E386EFA
:10156A00000E396E4004D8A409D0000E0001FF6FA6
:10157A002C0E0001FC6F000E0001FD6F020E4018D8
:10158A00D8A404D0350E3A6E000E3B6E010E436E9F
:10159A0012004050D8A408D0E30E3A6E000E3B6EFB
:1015AA00EA0E386E000E396E4004D8A409D0030E34
:1015BA000001FF6F2F0E0001FC6F000E0001FD6F8E
:1015CA00020E4018D8A404D0360E3A6E000E3B6EB6
:1015DA00010E436E12004050D8A408D0E60E3A6EAF
:1015EA00000E3B6EEB0E386E000E396E4004D8A426
:1015FA0009D0060E0001FF6F320E0001FC6F000ECB
:10160A000001FD6F020E4018D8A404D0370E3A6EBE
:10161A00000E3B6E010E436E1200000E406E120069
:10162A00010E406E1200020E406E12004004D8A451
:10163A0005D0010E0001FE6F010E436E020E401826
:10164A00D8A412003E50D8A403D0BDEC13F0120067
:10165A0011EC15F012000250230AD8B4E7D7090A90
:10166A00D8B412001A0AD8B41200010AD8B46FD733
:10167A00030AD8B48ED7010AD8B4ADD7070AD8B4AA
:10168A001200010AD8B41200030AD8B41200010ADF
:10169A00D8B412000F0AD8B41200010AD8B4120042
:1016AA00780AD8B4BAD7030AD8B4BAD7010AD8B4D0
:1016BA00BAD7070A12003FC1F8F00001F96BFA6BBA
:1016CA0001013E350001F83701E3F9810001F851C3
:1016DA000101436F01014351D8A40AD0000E010150
:1016EA003D6F000E01013E6F000E01013F6F1200B7
:1016FA0042C1F8F00001F96BFA6B010141350001B2
:10170A00F83701E3F9810001F8510101486F01013D
:10171A004851D8A40AD0000E01013D6F000E010104
:10172A003E6F000E01013F6F1200010148517B0F0D
:10173A00010143273FC148F1010142510101481B00
:10174A00800E0101481701013E8F0101418FFF0EF2
:10175A0001014017FF0E01014117000E0101421756
:10176A00000E0101446F000E0101456F000E0101D8
:10177A00466F070E0101476F01013DA10CD001011F
:10178A004051010144270101415101014523010151
:10179A004251010146230101D8903F333E333D3384
:1017AA000101D8904037413742370101472FE4D72A
:1017BA00090E0101476F01013DA10CD00101405101
:1017CA00010144270101415101014523010142510F
:1017DA00010146230101D8903F333E333D330101D5
:1017EA00D8904633453344330101472FE4D744C1E7
:1017FA00ECF045C1EDF046C1EEF043C1EFF048C14F
:10180A00F0F0E9EC0DF0ECC03DF1EDC03EF1EEC0B8
:10181A003FF112000600E9CF06F0EACF07F0E1CF68
:10182A0008F0E2CF09F0D9CF0AF0DACF0BF0F3CF04
:10183A000CF0F4CF0DF0F6CF0EF0F7CF0FF0F8CF93
:10184A0010F0F5CF11F0F2B00CD00ED080EC15F0FC
:10185A00F00E8118D8A4DDEC14F04104D8B4CFEC12
:10186A0014F0F2A065D0F2D7F2BAF2A45FD0242A1B
:10187A00350E2418D8A454D0300E246E0001E12B62
:10188A003A0E0001E119D8A44BD0300E0001E16FE5
:10189A000001E02B360E0001E019D8A441D0320E27
:1018AA000001DD6110D0300E0001E06F0001DE2B77
:1018BA003A0E0001DE19D8A433D0300E0001DE6FD3
:1018CA000001DD2B2DD0330E0001DE6106D0300E73
:1018DA000001E06F0001DE2B23D0300E246E300EA3
:1018EA000001E06F300E0001E16F300E0001DD6F84
:1018FA00300E0001DE6F232A370E2318D8A410D029
:10190A00300E246E300E0001E06F300E0001E16FE0
:10191A00300E0001DD6F300E0001DE6F300E236ED7
:10192A00F2943A0ED76E980ED66E02D09EBC9E9C4A
:10193A0011C0F5FF10C0F8FF0FC0F7FF0EC0F6FF89
:10194A000DC0F4FF0CC0F3FF0BC0DAFF0AC0D9FFC9
:10195A0009C0E2FF08C0E1FF07C0EAFF06C0E9FFCD
:10196A0005C0FBFF04C0FAFF44921100000E0001FB
:10197A00EC6F030E0001EC6501D012006CEC15F05F
:10198A007DD081903C04D8B481B803D0010E426E58
:10199A001200020E3C18D8B481BA03D0010E426E6E
:1019AA001200030E3C18D8B481BC03D0010E426E5B
:1019BA001200040E3C18D8B481BE6ED0010E426EDD
:1019CA00120081923C04D8B481B803D0020E426E50
:1019DA001200020E3C18D8B481BA03D0020E426E2D
:1019EA001200030E3C18D8B481BC03D0020E426E1A
:1019FA001200040E3C18D8B481BE4ED0020EDFD7B6
:101A0A0081943C04D8B481B803D0030E426E12000C
:101A1A00020E3C18D8B481BA03D0030E426E1200EB
:101A2A00030E3C18D8B481BC03D0030E426E1200D8
:101A3A00040E3C18D8B481BE2FD0030EC0D78196AD
:101A4A003C04D8B481B803D0040E426E1200020ED0
:101A5A003C18D8B481BA03D0040E426E1200030EA9
:101A6A003C18D8B481BC03D0040E426E1200040E96
:101A7A003C18D8B481BE10D0040EA1D70001EC5195
:101A8A00000AD8B47ED7010AD8B49BD7030AD8B4BF
:101A9A00B7D7010AD8B4D3D70001EC2B6AD7000E06
:101AAA00016E030E016401D0120085EC15F07DD0A1
:101ABA0081903C04D8B481B803D0010E426E120062
:101ACA00020E3C18D8B481BA03D0010E426E12003D
:101ADA00030E3C18D8B481BC03D0010E426E12002A
:101AEA00040E3C18D8B481BE6DD0010E426E1200AD
:101AFA0081923C04D8B481B803D0020E426E12001F
:101B0A00020E3C18D8B481BA03D0020E426E1200FB
:101B1A00030E3C18D8B481BC03D0020E426E1200E8
:101B2A00040E3C18D8B481BE4DD0020EDFD7819482
:101B3A003C04D8B481B803D0030E426E1200020EE0
:101B4A003C18D8B481BA03D0030E426E1200030EB9
:101B5A003C18D8B481BC03D0030E426E1200040EA6
:101B6A003C18D8B481BE2ED0030EC0D781963C044F
:101B7A00D8B481B803D0040E426E1200020E3C188B
:101B8A00D8B481BA03D0040E426E1200030E3C1878
:101B9A00D8B481BC03D0040E426E1200040E3C1865
:101BAA00D8B481BE0FD0040EA1D70150000AD8B410
:101BBA007FD7010AD8B49CD7030AD8B4B8D7010A88
:101BCA00D8B4D4D7012A6DD70001EF510001D8B497
:101BDA0008D00001EC510001ED110001EE11D8A46A
:101BEA0011D0000E0001EC6F000E0001ED6F000E27
:101BFA000001EE6F12000001EF2B0001D890EE33C6
:101C0A00ED33EC33000E0001EC150001F16F000E0C
:101C1A000001ED150001F26FFE0E0001EE15000144
:101C2A00F36F0001F1510001F2110001F311D8B470
:101C3A0011D0E1D70001EF2B010E0001EC27000EB5
:101C4A000001ED23000E0001EE230001D890EE33CF
:101C5A00ED33EC33000E0001EC150001F16F000EBC
:101C6A000001ED150001F26FFF0E0001EE150001F3
:101C7A00F36F0001F1510001F2110001F311D8B420
:101C8A0008D0D8D70001EF070001D890EC37ED371C
:101C9A00EE370001EDBF04D0020E0001EF61F2D76A
:101CAA000001EFB102D00001ED9F0001D890EF339F
:101CBA000001EF510001EE130001F0510001D8B408
:101CCA0002D00001EE8FECC0ECF0EDC0EDF0EEC0FA
:101CDA00EEF012007BEC15F0200E0001FA6F64ECB6
:101CEA0015F03AC0D9FF3BC0DAFF310EDE18D8A48E
:101CFA000CD09A0E0001EE6F000E0001EF6F070E76
:101D0A000001F06FC2EC11F05FD0910E0001EE6F8E
:101D1A00000E0001EF6F090E0001F06FC2EC11F026
:101D2A0053D042EC14F00001FA6F64EC15F0310E56
:101D3A000001FA19D8A412D03AC0D9FF3BC0DAFF81
:101D4A00310EDF6E9A0E0001EE6F000E0001EF6F8A
:101D5A00070E0001F06FC2EC11F036D0300E000110
:101D6A00FA19D8A412D03AC0D9FF3BC0DAFF300E14
:101D7A00DF6E910E0001EE6F000E0001EF6F090E8B
:101D8A000001F06FC2EC11F01FD03AC0D9FF3BC07E
:101D9A00DAFF310EDE18D8A40CD09A0E0001EE6FCD
:101DAA00000E0001EF6F070E0001F06FC2EC11F098
:101DBA000BD0910E0001EE6F000E0001EF6F090EBD
:101DCA000001F06FC2EC11F0230E0001FA19D8A439
:101DDA00A8D776EC15F0000E436E1200600ED36E93
:101DEA00070EB46EB59E0F0EC16E000E816E000E08
:101DFA008A6E9368000E826E000E8B6E000E946ED1
:101E0A0093909392939493968490849284948D90D1
:101E1A008D928D94969096929694D08EF28EF28CA4
:101E2A00F19EF286F290F1808AEC15F06BEC14F0D8
:101E3A00000E406E000E3D6E000E436E000E416EA7
:101E4A00F184F28A070ED56E3A0ED76E980ED66EC8
:101E5A00D58EB4680C0EC16E950EC06E4350D8B4C0
:101E6A000AD01DD05FEC0FF0F9D775EC09F0F6D760
:101E7A00D5EC13F0F3D74050000AD8B4F3D7010ACF
:101E8A00D8B4F3D7030AD8B4F3D7E8D7A3EC10F041
:101E9A00E5D79DEC06F0E2D76FEC0EF0DFD74050A5
:101EAA00000AD8B4F3D7010AD8B4F3D7030AD8B4CE
:101EBA00F3D7D4D705EC15F064EC15F0170E000132
:101ECA00EE6F010E0001EF6F0F0E0001F06FC2EC12
:101EDA0011F051D0000E0001FB6F020E0001FB65EC
:101EEA0001D049D00001FB2988EC13F0C3CFF4F0EC
:101EFA00C4CFF5F02DEC14F0F4C049F1F5C04AF165
:101F0A00F6C04BF183C040F184C041F185C042F173
:101F1A000001FB51020D720EF324D96E000EF4205B
:101F2A00DA6EDECF52F1DDCF53F152C1D9FF53C180
:101F3A00DAFFDF50ECEC13F0F4C03DF1F5C03EF1EE
:101F4A00F6C03FF160EC0BF03DC14CF13EC14DF1E2
:101F5A003FC14EF10DEC11F00101D8B005D00001DE
:101F6A00FB2918EC14F004D00001FB2903EC14F04F
:101F7A000001FB2BB2D74050D8A403D04350D8B4A9
:101F8A00A9D73EEC15F048EC15F012004204D8B47B
:101F9A0009D016D0310E1200320E1200330E120082
:101FAA00410E12003C50010AD8B4F4D7030AD8B43F
:101FBA00F3D7010AD8B4F2D7070AD8B4F1D750D068
:101FCA00020E4218D8B409D016D0340E1200350EBB
:101FDA001200360E1200420E12003C50010AD8B40A
:101FEA00F4D7030AD8B4F3D7010AD8B4F2D7070A48
:101FFA00D8B4F1D735D0030E4218D8B409D016D0C8
:10200A00370E1200380E1200390E1200430E12005B
:10201A003C50010AD8B4F4D7030AD8B4F3D7010A5A
:10202A00D8B4F2D7070AD8B4F1D71AD0040E421896
:10203A00D8B409D015D02A0E1200300E1200230E81
:10204A001200440E12003C50010AD8B4F4D7030A15
:10205A00D8B4F3D7010AD8B4F2D7070AD8B4F1D75B
:10206A00FF0E12004204D8B409D016D0310E120065
:10207A00320E1200330E1200410E12003C50010AB9
:10208A00D8B4F4D7030AD8B4F3D7010AD8B4F2D72C
:10209A00070AD8B4F1D750D0020E4218D8B409D0E2
:1020AA0016D0340E1200350E1200360E1200420EF1
:1020BA0012003C50010AD8B4F4D7030AD8B4F3D7B3
:1020CA00010AD8B4F2D7070AD8B4F1D735D0030E2B
:1020DA004218D8B409D016D0370E1200380E1200A2
:1020EA00390E1200430E12003C50010AD8B4F4D73C
:1020FA00030AD8B4F3D7010AD8B4F2D7070AD8B476
:10210A00F1D71AD0040E4218D8B409D015D02A0E25
:10211A001200300E1200230E1200440E12003C5020
:10212A00010AD8B4F4D7030AD8B4F3D7010AD8B449
:10213A00F2D7070AD8B4F1D7FF0E12007BEC15F0DC
:10214A00200E0001FB6F000E0001FA6F64EC15F01F
:10215A00320E0001EE6F010E0001EF6F0B0E00014F
:10216A00F06FC2EC11F03AC0D9FF3BC0DAFFDF5082
:10217A001DEC15F020EE01F03A50D9263B50DA2238
:10218A00DF501DEC15F02FD042EC14F00001FB6F6C
:10219A00230E0001FB19D8B426D0FAC0F9F0010EBB
:1021AA000001F9170001F9513A24D96E0001000E15
:1021BA003B20DA6EFBC0DFFF64EC15F03AC0D9FFB2
:1021CA003BC0DAFFDF501DEC15F020EE01F03A506B
:1021DA00D9263B50DA22DF501DEC15F0250E1DECF6
:1021EA0015F00001FA2B230E0001FB19D8A4CCD755
:1021FA003AC0ECF03BC0EDF0A4EC13F038C0D9FFC4
:10220A0039C0DAFFDF6E76EC15F0000E436E12006D
:10221A0001014BAF1DD049C14FF14AC150F14BC129
:10222A0051F101014F1F501F511F4F2B000E502318
:10223A005123000E01014F250101496F000E0101D2
:10224A00502101014A6F800E0101512101014B6F9A
:10225A0001014EAF1DD04CC14FF14DC150F14EC1DD
:10226A0051F101014F1F501F511F4F2B000E5023D8
:10227A005123000E01014F2501014C6F000E01018F
:10228A00502101014D6F800E0101512101014E6F54
:10229A00000E0101491B000E01014A1B800E0101BB
:1022AA004B1B000E01014C1B000E01014D1B800E41
:1022BA0001014E1B01014C510101495D01014D51C2
:1022CA0001014A5901014E5101014B59D8B002D0BE
:1022DA00D8901200D8801200000E0001F16F0001A0
:1022EA00EDAF08D00001EC6DED1FD8B0ED2B010E5B
:1022FA000001F16F0001EFAF05D00001EE6DEF1F95
:10230A00D8B0EF2B0001EE510001EF11D8B426D05E
:10231A00010E0001F06F06D00001D890EE37EF37BA
:10232A000001F02B0001EFAFF7D70001EE510001D9
:10233A00EC5D0001EF510001ED59D8A008D0000171
:10234A00EE510001EC5F0001EF510001ED5B00016D
:10235A00D890EF33EE330001F02FE7D70001F151A7
:10236A000001D8B405D00001EC6DED1FD8B0ED2BFB
:10237A00ECC0ECF0EDC0EDF01200000E0001F86FB9
:10238A0021D00001F851010DEEC0F1F0EFC0F2F0DA
:10239A00F3500001F127F4500001F223F1C0F6FFD7
:1023AA00F2C0F7FFF86A0C0EF76403D00800F55084
:1023BA0005D0F6CFE9FFF7CFEAFFEF501DEC15F095
:1023CA000001F82BFF0E0001F16FFF0E0001F26F02
:1023DA000001F0510001F36FF46B0001F1510001AB
:1023EA00F3270001F2510001F4230001F851000122
:1023FA00F56FF66B0001F3510001F55D0001F6512E
:10240A00800A0001F76F0001F451800A0001F759B0
:10241A00D8B01200B6D7B000BF00CE00B500C400D5
:10242A00D300BA00C900D800E900EA00EB00A10015
:10243A00A600AB003030303000D7234154696D65B7
:10244A0072206D6F646500496E6163746976650018
:10245A0041637469766500242424240024242424F6
:10246A0000242424240024242424002424242400B2
:10247A00242424240024242424002424242400247E
:10248A00242424002424242400242424240024246E
:10249A00242400303000303000353000353000322E
:1024AA0032320001FF6BFE6BFD6BFC6B00EE38F005
:1024BA000C0EEE6AE806FDE1D20EF66E260EF76EF7
:1024CA00000EF86E01EE00F010EE3DF00900F5CFB7
:1024DA00EEFFE550E150FAE1200EF66E240EF76E9B
:1024EA00000EF86E00EE60F010EE8CF00900F5CFE9
:1024FA00EEFFE550E150FAE1660EF66E2A0EF76E2F
:10250A00000EF86E00EE23F010EE15F00900F5CF7C
:10251A00EEFFE550E150FAE144904492000EF86E65
:10252A000001F3EF0EF00001F06F34D00001F0511A
:10253A00FFC0ECF00001ED6B0001EC27000EED236B
:10254A00D8900001EC37ED37600E0001EC25D96E0A
:10255A00000E0001ED21DA6EDECFEEF0DDCFEFF0F6
:10256A00000E0001F16F030E0001F16501D010D0D9
:10257A000001F151010DF3500001EE25D96EF4501E
:10258A000001EF21DA6E240EDF6E0001F12BEBD78A
:10259A000001F02B020E0001F065C8D71200000EF0
:1025AA000001EE6F020E0001EE6501D0120000017B
:1025BA00EE51020D780EF324D96E000EF420DA6E75
:1025CA00DECFECF0DDCFEDF0000E0001EF6F030E71
:1025DA000001EF6501D010D00001EF51010DF35059
:1025EA000001EC25D96EF4500001ED21DA6E240EBB
:1025FA00DF6E0001EF2BEBD70001EE2BD3D70BD008
:10260A00010E07D0020E05D0030E03D0040E01D02E
:10261A00640E3C6E0ED08150700AD8B4F7D7C00A47
:10262A00D8B4F2D7600AD8B4EDD7300AD8B4E8D70C
:10263A00EFD754EC0DF037EC10F03F6E3F50AAEC98
:10264A000AF01200020E0001EC6FA20E0001ED6FFB
:10265A000001EE6912D0A20E0001ED6F08D0000150
:10266A00EE690001EE070001EE29D8A4FAD70001AD
:10267A00ED070001ED29D8A4F2D70001EC0700010B
:10268A00EC29D8B41200E7D70BD0010E07D0020EFE
:10269A0005D0030E03D0040E01D0640E3C6E0ED09A
:1026AA008150700AD8B4F7D7C00AD8B4F2D7600AF2
:1026BA00D8B4EDD7300AD8B4E8D7EFD7BBEC0CF0D2
:1026CA00CBEC0FF03F6E120048656C6C6F20576FB1
:1026DA00726C640043617374656C6C6F203C0041DA
:1026EA0075746F6D61746963206D6F6465004D6107
:1026FA006E75616C206D6F64650048756D696469FB
:05270A0074793A200083
:102710000001EC6F9E9C9D8C07D0010E03D0050E2E
:1027200001D0090EC26E0BD00001EC51010AD8B4E1
:10273000F4D7030AD8B4F3D7010AD8B4F2D7C282C7
:10274000C2B2FED79D9C1200000120EE01F0EC51B8
:10275000D926ED51DA22DF50D00F0001EE6FECC028
:10276000D9FFEDC0DAFFDF50D00F0A0DF3CFEFF045
:102770000001EE510001EF251200310E3518D8A4EA
:1027800003D0010E91EC14F0310E3618D8A403D00A
:10279000020E91EC14F0310E3718D8A403D0030EBA
:1027A00091EC14F0010E3E6E120064EC15F0260E52
:1027B0000001EE6F010E0001EF6F0C0E0001F06FD3
:1027C000C2EC11F0020E4018D8A403D04350D8B484
:1027D000F9D7F9EC14F012000001F76F0001F7517E
:1027E0000001EC6FED6BEE6B8E0E0001EF6F000ED3
:1027F0000001F06FE9EC0DF0ECC0F4F0EDC0F5F085
:10280000EEC0F6F012000001EC6F06D084901200CA
:1028100084921200849412000001EC51010AD8B491
:10282000F5D7030AD8B4F4D7010AD8A41200F2D716
:102830000001EC6F06D08480120084821200848430
:1028400012000001EC51010AD8B4F5D7030AD8B43C
:10285000F4D7010AD8A41200F2D7F4C0ECF0F5C006
:10286000EDF00001EE6B8E0E0001EF6F000E000127
:10287000F06FE9EC0DF0ECC0F4F0EDC0F5F0EEC057
:10288000F6F01200000E3D6E000E416E0BD071ECA2
:1028900015F0F00E8118D8A4B3EC14F04104D8B4AC
:1028A000A4EC14F03D50D8B4F2D73F501200000E03
:1028B0000001ED6F06D0000E0001EE6F0001EE3F4B
:1028C000FDD70001ED2BED050001EC6F0C0E0001B2
:1028D000EC65F1D71200829427EC13F0380E28EC47
:1028E00015F027EC13F00F0E28EC15F0C1EC14F0E6
:1028F000010E28EC15F0C1EC14F01200016E06D0A8
:102900008490120084921200849412000150010AF3
:10291000D8B4F6D7030AD8B4F5D7010AD8A4120060
:10292000F3D7016E06D08480120084821200848462
:1029300012000150010AD8B4F6D7030AD8B4F5D76B
:10294000010AD8A41200F3D7F00E8118D8A41200FF
:1029500057EC14F0F00E8118D8A41200000E416E4E
:10296000010E3D6E12004104D8B4120057EC14F071
:10297000F00E8118D8B4120049EC13F0010E416E2C
:1029800012008DEC15F08290828204D0828452EC89
:1029900015F0829483BEFAD78AEC15F01200F00E7F
:1029A0008118D8A41200EBEC14F0F00E8118D8A412
:1029B0001200F290000E416E12004104D8B41200D1
:1029C000EBEC14F0F00E8118D8B4120004EC13F004
:1029D000010E416E1200000E026E04D0000E036E56
:1029E000033EFED7022A0204016E0C0E0164F6D7E4
:1029F0001200010E03EC14F0020E03EC14F0030EAF
:102A000003EC14F0000E3E6E1200000E806E000EFD
:102A1000896E000E926E9280928292849D9C9F8C11
:102A20001200010E7EEC14F0020E7EEC14F0030E88
:102A30007EEC14F0000E3E6E12000001ED6FEDC052
:102A400083FF82808292828452EC15F0829412007D
:102A50000001ED6FEDC083FF82908292828452EC80
:102A600015F08294120030303030300035300030B4
:0B2A70003000303000303000313131D8
:102A7C00010E03EC14F0020E03EC14F0030E03EC45
:102A8C0014F01200000E806E000E896E000E926E15
:102A9C009D9C9E9CC2921200020E0001EC6F0001E4
:102AAC00EC070001EC29D8B41200F9D7C00E28ECC1
:102ABC0015F052EC15F0C1EC14F01200010E28ECDC
:102ACC0015F052EC15F0C1EC14F0120081808182EB
:102ADC00818481861200819081928194819612006A
:102AEC00000E8A6EF290F2861200000E8A6EF29040
:102AFC00F2961200819081928194819612008180CD
:102B0C008182818481861200000E956E1200956878
:022B1C001200A5
:020000040020DA
:08000000FFFFFFFFFFFFFFFF00
:020000040030CA
:0E000000FF081F1EFF8081FF0FC00FE00F40A2
:00000001FF
