:0400000053EF00F0CA
:0E0008003C82FACF0FF0FBCF10F056ED01F066
:100018003C80D8CF60F0E8CF61F0E0CF62F0FACF53
:1000280063F0FBCF64F0E9CF65F0EACF66F0E1CF8B
:1000380067F0E2CF68F0D9CF69F0DACF6AF0F3CF92
:100048006BF0F4CF6CF0F6CF6DF0F7CF6EF0F8CF21
:100058006FF0F5CF70F070C0F5FF6FC0F8FF6EC09D
:10006800F7FF6DC0F6FF6CC0F4FF6BC0F3FF6AC00A
:10007800DAFF69C0D9FF68C0E2FF67C0E1FF66C068
:10008800EAFF65C0E9FF64C0FBFF63C0FAFF62C016
:10009800E0FF61C0E8FF60C0D8FF3C9010002AEF85
:1000A80002F0000E016E030E016401D01200D5ECBF
:1000B80002F07DD081903804D8B481B803D0010E05
:1000C8003B6E1200020E3818D8B481BA03D0010E64
:1000D8003B6E1200030E3818D8B481BC03D0010E51
:1000E8003B6E1200040E3818D8B481BE6DD0010ED4
:1000F8003B6E120081923804D8B481B803D0020E46
:100108003B6E1200020E3818D8B481BA03D0020E22
:100118003B6E1200030E3818D8B481BC03D0020E0F
:100128003B6E1200040E3818D8B481BE4DD0020EB2
:10013800DFD781943804D8B481B803D0030E3B6E5E
:100148001200020E3818D8B481BA03D0030E3B6EE1
:100158001200030E3818D8B481BC03D0030E3B6ECE
:100168001200040E3818D8B481BE2ED0030EC0D7A2
:1001780081963804D8B481B803D0040E3B6E1200BF
:10018800020E3818D8B481BA03D0040E3B6E1200A0
:10019800030E3818D8B481BC03D0040E3B6E12008D
:1001A800040E3818D8B481BE0FD0040EA1D7015060
:1001B800000AD8B47FD7010AD8B49CD7030AD8B4A8
:1001C800B8D7010AD8B4D4D7012A6DD73B04D8B41C
:1001D80009D016D0310E1200320E1200330E120062
:1001E800410E12003850010AD8B4F4D7030AD8B423
:1001F800F3D7010AD8B4F2D7070AD8B4F1D750D048
:10020800020E3B18D8B409D016D0340E1200350EA1
:100218001200360E1200420E12003850010AD8B4ED
:10022800F4D7030AD8B4F3D7010AD8B4F2D7070A27
:10023800D8B4F1D735D0030E3B18D8B409D016D0AE
:10024800370E1200380E1200390E1200430E12003B
:100258003850010AD8B4F4D7030AD8B4F3D7010A3E
:10026800D8B4F2D7070AD8B4F1D71AD0040E3B187D
:10027800D8B409D015D02A0E1200300E1200230E61
:100288001200440E12003850010AD8B4F4D7030AF9
:10029800D8B4F3D7010AD8B4F2D7070AD8B4F1D73B
:1002A800FF0E12000600E9CF11F0EACF12F0E1CFFD
:1002B80013F0E2CF14F0D9CF15F0DACF16F0F3CF60
:1002C80017F0F4CF18F0F6CF19F0F7CF1AF0F8CFEF
:1002D8001BF0F5CF1CF0F2B00CD00DD0DAEC02F028
:1002E800F00E8118D8A48BEC02F03A04D8B47DEC57
:1002F80002F0F2B0F3D71CC0F5FF1BC0F8FF1AC01C
:10030800F7FF19C0F6FF18C0F4FF17C0F3FF16C0B7
:10031800DAFF15C0D9FF14C0E2FF13C0E1FF12C015
:10032800EAFF11C0E9FF10C0FBFF0FC0FAFF3C92C3
:100338001100000E0D6E0CD00D50010DF35003246A
:10034800D96EF4500420DA6EDF50BDEC02F00D2AAD
:10035800FF0E066EFF0E076E0550086E096A0650FE
:100368000826075009220D500A6E0B6A08500A5CCD
:100378000B50800A0C6E0950800A0C58D8B0120035
:10038800DBD70BD0010E07D0020E05D0030E03D029
:10039800040E01D0640E386E0ED08150700AD8B4A5
:1003A800F7D7C00AD8B4F2D7600AD8B4EDD7300A64
:1003B800D8B4E8D7EFD755EC00F0EAEC00F0396E86
:1003C80039500AEC02F01200600ED36E070EB46EBC
:1003D800B59E0F0EC16E000E816E000E8A6E936878
:1003E800000E826E000E8B6E000E946E93909392A8
:1003F80093949396D08EF28EF28CF19EF286F290C0
:10040800F180DFEC02F05CEC02F0FFD70E6E16D044
:100418002C0E036E000E046E0C0E056E9DEC01F0A2
:100428001200200E036E000E046E0C0E056E9DEC7D
:1004380001F012000E50BDEC02F012000E50230A1B
:10044800D8B4EFD7090AD8B4E3D7F4D73B6A3A6AE5
:10045800396A386A4E0EF66E050EF76E000EF86EA3
:1004680000EE20F010EE18F00900F5CFEEFFE55091
:10047800E150FAE13C903C92000EF86E0001E8EF82
:1004880001F0020E1D6EA20E1E6E1F680CD0A20E89
:100498001E6E05D01F681F061F28D8A4FCD71E068D
:1004A8001E28D8A4F7D71D061D28D8B41200EFD7E8
:1004B800829445EC02F0380EB3EC02F045EC02F001
:1004C8000F0EB3EC02F06FEC02F0010EB3EC02F089
:1004D8006FEC02F01200E2EC02F08290828204D00B
:1004E8008284C7EC02F0829483BEFAD7DFEC02F074
:1004F8001200F00E8118D8A4120099EC02F0F00E48
:100508008118D8A41200F290000E3A6E12003A0434
:10051800D8B4120099EC02F0F00E8118D8B4120089
:10052800C5EC01F0010E3A6E1200000E026E04D006
:10053800000E036E033EFED7022A0204016E0C0E63
:100548000164F6D7120043617374656C6C6F203CCC
:10055800330048656C6C6F20576F726C64001E6EB8
:100568001EC083FF829082928284C7EC02F082943C
:100578001200026E02C083FF828082928284CEECD7
:1005880002F082941200020E1D6E1D061D28D8B4BA
:100598001200FBD7020E016E01060128D8B4120022
:1005A800FBD781808182818481861200819081922B
:1005B800819481961200000E956E120095681200C3
:020000040020DA
:08000000FFFFFFFFFFFFFFFF00
:020000040030CA
:0E000000FF081F1EFF8081FF0FC00FE00F40A2
:00000001FF
