:0400000053EF00F0CA
:0E0008004A82FACF36F0FBCF37F03CED07F01E
:100018004A80D8CFE8F0E8CFE9F0E0CFEAF0FACFAD
:10002800EBF0FBCFECF0E9CFEDF0EACFEEF0E1CF6B
:10003800EFF0E2CFF0F0D9CFF1F0DACFF2F0F3CF72
:10004800F3F0F4CFF4F0F6CFF5F0F7CFF6F0F8CF01
:10005800F7F0F5CFF8F0F8C0F5FFF7C0F8FFF6C0F5
:10006800F7FFF5C0F6FFF4C0F4FFF3C0F3FFF2C0EA
:10007800DAFFF1C0D9FFF0C0E2FFEFC0E1FFEEC048
:10008800EAFFEDC0E9FFECC0FBFFEBC0FAFFEAC0F6
:10009800E0FFE9C0E8FFE8C0D8FF4A9010007CEF15
:0200A8000CF05A
:100D000000526567616E646F3A200000356E82D0D4
:100D100045EC0EF060C02AF061C02BF0050E2C6E81
:100D200043EC0CF0120045EC0EF062C02AF063C0F8
:100D30002BF0050E2C6E43EC0CF0120045EC0EF07F
:100D400064C02AF065C02BF0050E2C6E43EC0CF04D
:100D50001200828445EC0EF066C02AF067C02BF0CA
:100D6000050E2C6E43EC0CF0120045EC0EF068C042
:100D70002AF069C02BF0050E2C6E43EC0CF012002B
:100D800045EC0EF06AC02AF06BC02BF0050E2C6EFD
:100D900043EC0CF0120045EC0EF06CC02AF06DC074
:100DA0002BF0050E2C6E43EC0CF0120045EC0EF00F
:100DB0006EC02AF06FC02BF0050E2C6E43EC0CF0C9
:100DC000120045EC0EF070C02AF071C02BF0050E39
:100DD0002C6E43EC0CF01200000E0001FB6F1200B1
:100DE000010E0001FB6F1200020E0001FB6F1200EA
:100DF0008286828082841200355029EC0EF0120027
:100E00000001FB05D8A41200010E466E010E000180
:100E1000FC6F12003550230AD8B4F2D7090AD8B4AF
:100E2000EBD71A0AD8B41200010AD8B471D7030A52
:100E3000D8B479D7010AD8B481D7070AD8B489D7EA
:100E4000010AD8B492D7030AD8B49AD7010AD8B401
:100E5000A2D70F0AD8B4AAD7010AD8B4B2D7780A51
:100E6000D8B4BAD7030AD8B4BBD7010AD8B4BCD710
:100E7000070AD8A41200BCD70600E9CF38F0EACFA1
:100E800039F0E1CF3AF0E2CF3BF0D9CF3CF0DACF06
:100E90003DF0F3CF3EF0F4CF3FF0F6CF40F0F7CF88
:100EA00041F0F8CF42F0F5CF43F0F2B00CD00ED0C5
:100EB00068EC0EF0F00E8118D8A4DFEC0DF04804B9
:100EC000D8B4D1EC0DF0F2A062D0F2D7F2BAF2A40D
:100ED0005ED00B2A350E0B18D8A454D0300E0B6EF2
:100EE0000001E62B3A0E0001E619D8A44BD0300ED3
:100EF0000001E66F0001E52B360E0001E519D8A4CC
:100F000041D0320E0001E26110D0300E0001E56FD9
:100F10000001E32B3A0E0001E319D8A433D0300EC0
:100F20000001E36F0001E22B2DD0330E0001E361DD
:100F300006D0300E0001E56F0001E32B23D0300E08
:100F40000B6E300E0001E56F300E0001E66F300EC3
:100F50000001E26F300E0001E36F0A2A370E0A1813
:100F6000D8A410D0300E0B6E300E0001E56F300E9D
:100F70000001E66F300E0001E26F300E0001E36FFA
:100F8000300E0A6EF294FF0ED76EF00ED66E43C08E
:100F9000F5FF42C0F8FF41C0F7FF40C0F6FF3FC079
:100FA000F4FF3EC0F3FF3DC0DAFF3CC0D9FF3BC0B9
:100FB000E2FF3AC0E1FF39C0EAFF38C0E9FF37C0BD
:100FC000FBFF36C0FAFF4A921100000E0101006FCC
:100FD000030E0101006501D0120054EC0EF07DD02B
:100FE00081904404D8B481B803D0010E496E120038
:100FF000020E4418D8B481BA03D0010E496E120013
:10100000030E4418D8B481BC03D0010E496E1200FF
:10101000040E4418D8B481BE6ED0010E496E120081
:1010200081924404D8B481B803D0020E496E1200F4
:10103000020E4418D8B481BA03D0020E496E1200D1
:10104000030E4418D8B481BC03D0020E496E1200BE
:10105000040E4418D8B481BE4ED0020EDFD781945E
:101060004404D8B481B803D0030E496E1200020EB6
:101070004418D8B481BA03D0030E496E1200030E8F
:101080004418D8B481BC03D0030E496E1200040E7C
:101090004418D8B481BE2FD0030EC0D78196440423
:1010A000D8B481B803D0040E496E1200020E441861
:1010B000D8B481BA03D0040E496E1200030E44184E
:1010C000D8B481BC03D0040E496E1200040E44183B
:1010D000D8B481BE10D0040EA1D701010051000A7E
:1010E000D8B47ED7010AD8B49BD7030AD8B4B7D7EF
:1010F000010AD8B4D3D70101002B6AD7000E286E9D
:10110000030E286401D012006DEC0EF07DD08190AA
:101110004404D8B481B803D0010E496E1200020E07
:101120004418D8B481BA03D0010E496E1200030EE0
:101130004418D8B481BC03D0010E496E1200040ECD
:101140004418D8B481BE6DD0010E496E1200819250
:101150004404D8B481B803D0020E496E1200020EC6
:101160004418D8B481BA03D0020E496E1200030E9F
:101170004418D8B481BC03D0020E496E1200040E8C
:101180004418D8B481BE4DD0020EDFD781944404F8
:10119000D8B481B803D0030E496E1200020E441871
:1011A000D8B481BA03D0030E496E1200030E44185E
:1011B000D8B481BC03D0030E496E1200040E44184B
:1011C000D8B481BE2ED0030EC0D781964404D8B4C3
:1011D00081B803D0040E496E1200020E4418D8B430
:1011E00081BA03D0040E496E1200030E4418D8B41D
:1011F00081BC03D0040E496E1200040E4418D8B40A
:1012000081BE0FD0040EA1D72850000AD8B47FD7D2
:10121000010AD8B49CD7030AD8B4B8D7010AD8B405
:10122000D4D7282A6DD763EC0EF0200E01010E6F83
:101230003DEC0EF0F9C0D9FFFAC0DAFF310EDE182E
:10124000D8A40CD0C30E0101026F000E0101036F80
:10125000070E0101046FB1EC0BF05FD0BA0E010173
:10126000026F000E0101036F090E0101046FB1EC62
:101270000BF053D056EC0DF001010E6F3DEC0EF06B
:10128000310E01010E19D8A412D0F9C0D9FFFAC04D
:10129000DAFF310EDF6EC30E0101026F000E010195
:1012A000036F070E0101046FB1EC0BF036D0300E66
:1012B00001010E19D8A412D0F9C0D9FFFAC0DAFF83
:1012C000300EDF6EBA0E0101026F000E0101036FD6
:1012D000090E0101046FB1EC0BF01FD0F9C0D9FF6A
:1012E000FAC0DAFF310EDE18D8A40CD0C30E01010B
:1012F000026F000E0101036F070E0101046FB1ECD4
:101300000BF00BD0BA0E0101026F000E0101036F4A
:10131000090E0101046FB1EC0BF0230E01010E194F
:10132000D8A4A8D75EEC0EF0000E0001FC6F1200EE
:101330003DEC0EF0AF0E0101026F000E0101036FD4
:101340000B0E0101046FB1EC0BF063D0000E010134
:101350000E6F080E01010E6501D05BD001010E5128
:10136000020D600EF324D96E000EF420DA6EDECF8B
:101370000FF1DDCF10F10FC1D9FF10C1DAFF240E3C
:10138000DE18D8B443D00FC1D9FF10C1DAFF000175
:10139000E251DE18D8A43AD0010120EE01F00F513D
:1013A000D9261051DA220001E351DE18D8A42ED03C
:1013B000010120EE02F00F51D9261051DA2200016E
:1013C000E551DE18D8A422D0010120EE03F00F5120
:1013D000D9261051DA220001E651DE18D8A416D021
:1013E0003DEC0EF0010E0101026F0D0E0101036FC5
:1013F0000A0E0101046FB1EC0BF00FC102F110C134
:1014000003F1050E0101046FB1EC0BF001010E2B8D
:10141000A0D70001FB05D8A412000001FC51D8A4FC
:10142000120094D74904D8B409D016D0310E120056
:10143000320E1200330E1200410E12004450010A07
:10144000D8B4F4D7030AD8B4F3D7010AD8B4F2D782
:10145000070AD8B4F1D750D0020E4918D8B409D031
:1014600016D0340E1200350E1200360E1200420E47
:1014700012004450010AD8B4F4D7030AD8B4F3D701
:10148000010AD8B4F2D7070AD8B4F1D735D0030E81
:101490004918D8B409D016D0370E1200380E1200F1
:1014A000390E1200430E12004450010AD8B4F4D78A
:1014B000030AD8B4F3D7010AD8B4F2D7070AD8B4CC
:1014C000F1D71AD0040E4918D8B409D015D02A0E75
:1014D0001200300E1200230E1200440E120044506F
:1014E000010AD8B4F4D7030AD8B4F3D7010AD8B4A0
:1014F000F2D7070AD8B4F1D7FF0E12004904D8B4C6
:1015000009D016D0310E1200320E1200330E120026
:10151000410E12004450010AD8B4F4D7030AD8B4DB
:10152000F3D7010AD8B4F2D7070AD8B4F1D750D00C
:10153000020E4918D8B409D016D0340E1200350E58
:101540001200360E1200420E12004450010AD8B4A6
:10155000F4D7030AD8B4F3D7010AD8B4F2D7070AEC
:10156000D8B4F1D735D0030E4918D8B409D016D065
:10157000370E1200380E1200390E1200430E120000
:101580004450010AD8B4F4D7030AD8B4F3D7010AF7
:10159000D8B4F2D7070AD8B4F1D71AD0040E491834
:1015A000D8B409D015D02A0E1200300E1200230E26
:1015B0001200440E12004450010AD8B4F4D7030AB2
:1015C000D8B4F3D7010AD8B4F2D7070AD8B4F1D700
:1015D000FF0E120063EC0EF0200E01010F6F000EE3
:1015E00001010E6F3DEC0EF0A40E0101026F000E22
:1015F0000101036F0B0E0101046FB1EC0BF0F9C098
:10160000D9FFFAC0DAFFDF5009EC0EF0000120EE3E
:1016100001F0F951D926FA51DA22DF5009EC0EF027
:1016200032D056EC0DF001010F6F230E01010F199E
:10163000D8B429D00EC10DF1010E01010D17010121
:101640000D510001F925D96E0101000E0001FA21AA
:10165000DA6E0FC1DFFF3DEC0EF0F9C0D9FFFAC022
:10166000DAFFDF5009EC0EF0000120EE01F0F95135
:10167000D926FA51DA22DF5009EC0EF0250E09ECDA
:101680000EF001010E2B230E01010F19D8A4C9D7AA
:101690005EEC0EF0000E0001FC6F1200600ED36EC7
:1016A000070EB46EB59E0F0EC16E000E816E000E59
:1016B0008A6E9368000E826E000E8B6E000E946E22
:1016C0009390939293949396D08EF28EF28CF19E97
:1016D000F286F290F18072EC0EF093EC0DF0010EB8
:1016E0000001FB6F000E456E000E0001FC6F000E46
:1016F000486EF184F28A070ED56EFF0ED76EF00E9B
:10170000D66ED58E0001FC51D8B40AD01ED02AEC7A
:101710000DF0F8D798EC09F0F5D713EC0DF0F2D7EF
:101720000001FB51000AD8B4F2D7010AD8B4F2D7AD
:10173000030AD8B4F2D7E6D7EAEC0AF0E3D740ECD4
:101740000DF0E0D713EC09F0DDD70001FB51000AE2
:10175000D8B4F2D7010AD8B4F2D7030AD8B4F2D772
:10176000D1D7000E01010C6F21D001010C51010DE8
:1017700002C105F103C106F1F35001010527F45040
:101780000101062305C1F6FF06C1F7FFF86A0C0E3A
:10179000F76403D00800F55005D0F6CFE9FFF7CF86
:1017A000EAFFEF5009EC0EF001010C2BFF0E0101D6
:1017B000056FFF0E0101066F010104510101076F62
:1017C000086B0101055101010727010106510101C3
:1017D000082301010C510101096F0A6B0101075136
:1017E0000101095D01010A51800A01010B6F01012C
:1017F0000851800A01010B59D8B01200B6D70F006A
:101800001900230014001E00D400CA00CF00D90024
:1018100048656C6C6F20576F726C64004361737421
:10182000656C6C6F203C004175746F6D6174696309
:10183000206D6F6465004D616E75616C206D6F6425
:10184000650048756D69646974793A200054696D62
:101850006572206D6F646500496E616374697665B9
:1018600000416374697665003034303000243032D2
:101870003300243033320024303333003030300032
:10188000303000303000000E346E1DD03450010D69
:101890002AC02DF02BC02EF0F3502D26F4502E220E
:1018A0002DC0F6FF2EC0F7FFF86A0C0EF76403D0C8
:1018B0000800F55005D0F6CFE9FFF7CFEAFFEF506B
:1018C00029EC0EF0342AFF0E2D6EFF0E2E6E2C50DA
:1018D0002F6E306A2D502F262E5030223450316E0C
:1018E000326A2F50315C3250800A336E3050800A99
:1018F0003358D8B01200CAD70001FC6BFB6BFA6BEF
:10190000F96B496A486A476A466A456A446AFE0E44
:10191000F66E170EF76E000EF86E00EE60F010EE29
:1019200088F00900F5CFEEFFE550E150FAE1FE0E38
:10193000F66E1A0EF76E000EF86E00EE01F010EE65
:1019400027F00900F5CFEEFFE550E150FAE14A90AB
:101950004A92000EF86E00014EEF0BF00BD0010E14
:1019600007D0020E05D0030E03D0040E01D0640E82
:10197000446E0ED08150700AD8B4F7D7C00AD8B4DC
:10198000F2D7600AD8B4EDD7300AD8B4E8D7EFD789
:101990007EEC08F07EEC0AF0476E475086EC06F0CD
:1019A0001200020E0101006FA20E0101016F010180
:1019B000026912D0A20E0101016F08D00101026973
:1019C0000101020701010229D8A4FAD70101010788
:1019D00001010129D8A4F2D7010100070101002962
:1019E000D8B41200E7D70BD0010E07D0020E05D0F5
:1019F000030E03D0040E01D0640E446E0ED081504D
:101A0000700AD8B4F7D7C00AD8B4F2D7600AD8B4ED
:101A1000EDD7300AD8B4E8D7EFD7E5EC07F012ECF1
:101A20000AF0476E12003DEC0EF0980E0101026FB5
:101A3000000E0101036F0C0E0101046FB1EC0BF0FD
:101A4000020E0001FB19D8A412000001FC51D8A419
:101A50001200F6D73DEC0EF0890E0101026F000E68
:101A60000101036F0F0E0101046FB1EC0BF00001D7
:101A7000FB51D8A412000001FC51D8A41200F7D7E2
:101A800063EC0EF0200E0101036F3DEC0EF04650AA
:101A9000D8B406D056EC0DF00101036F000E466E6F
:101AA0005EEC0EF0000E0001FC6F1200000E456EA1
:101AB000000E486E0BD059EC0EF0F00E8118D8A431
:101AC000B5EC0DF04804D8B4A6EC0DF04550D8B4F0
:101AD000F2D747501200000E0101016F06D0000E30
:101AE0000101026F0101023FFDD70101012B010538
:101AF0000101006F0C0E01010065F1D712003031B9
:101B0000003032003033003030313131313030305C
:101B10000031323030002430323100243032320093
:051B2000243033310008
:101B26008294D1EC0CF0380E14EC0EF0D1EC0CF0E3
:101B36000F0E14EC0EF0C3EC0DF0010E14EC0EF0CB
:101B4600C3EC0DF01200F00E8118D8A412006BEC55
:101B56000DF0F00E8118D8A41200000E486E010E8A
:101B6600456E12004804D8B412006BEC0DF0F00E6E
:101B76008118D8B41200F3EC0CF0010E486E120076
:101B860078EC0EF08290828204D082841FEC0EF0F4
:101B9600829483BEFAD772EC0EF01200F00E811812
:101BA600D8A41200EDEC0DF0F00E8118D8A41200A6
:101BB600F290000E486E12004804D8B41200EDEC04
:101BC6000DF0F00E8118D8B41200AEEC0CF0010E38
:101BD600486E1200000E296E04D0000E2A6E2A3EB0
:101BE600FED7292A2904286E0C0E2864F6D712007F
:101BF6007AEC0EF08290828204D082844DEC0EF054
:101C0600829483BEFAD775EC0EF012000101016FC3
:101C160001C183FF8280829282841FEC0EF082943F
:101C260012000101016F01C183FF829082928284BA
:101C36001FEC0EF082941200020E0101006F0101EA
:101C4600000701010029D8B41200F9D7296E29C06E
:101C560083FF8280829282844DEC0EF08294120081
:101C6600296E29C083FF8290829282844DEC0EF009
:101C760082941200010E14EC0EF01FEC0EF0C3EC71
:101C86000DF01200010E33EC0EF04DEC0EF0FBECF5
:101C96000DF01200020E286E28062828D8B412006D
:101CA600FBD7818081828184818612008190819216
:101CB600819481961200000E8A6EF290F2861200CE
:101CC600000E8A6EF290F2961200819081928194B3
:101CD6008196120081808182818481861200000EA5
:101CE600956E1200000E956E1200956812009568AA
:021CF6001200DA
:020000040020DA
:08000000FFFFFFFFFFFFFFFF00
:020000040030CA
:0E000000FF081F1EFF8081FF0FC00FE00F40A2
:00000001FF
